:020000040000FA
:0400000007EF00F016
:10000800128209ED00F0C1EF01F00600F2AA0FEF2D
:1000180000F011EF00F0BBEF00F0F2A416EF00F0D3
:1000280018EF00F0BBEF00F0F294010E1024016EFF
:10003800000E1120026E000E046E1E0E036E33ECCD
:1000480001F001C010F002C011F095EF00F0010EB0
:10005800896E000E8C6E8CCF8BFF8BCF8AFF10C001
:1000680009F0070E091689CF0AF0092A3EEF00F0B9
:10007800D8900A36092E3CEF00F00A50896EBBEF83
:1000880000F0010E8A6E000E8C6E8CCF8BFF8BCF2A
:1000980089FF10C009F0070E09168ACF0AF0092A4D
:1000A80058EF00F0D8900A36092E56EF00F00A50A3
:1000B8008A6EBBEF00F0010E8B6E000E8C6E8CCF3B
:1000C8008AFF8ACF89FF10C009F0070E09168BCF67
:1000D8000AF0092A72EF00F0D8900A36092E70EF5C
:1000E80000F00A508B6EBBEF00F0010E8C6E000E14
:1000F8008B6E8BCF8AFF8ACF89FF10C009F0070E5D
:1001080009168CCF0AF0092A8CEF00F0D8900A362D
:10011800092E8AEF00F00A508C6EBBEF00F0BBEF9F
:1001280000F010C001F011C002F0000E046E080EBD
:10013800036EBDEC00F00250000AD8B4A6EF00F040
:10014800BBEF00F00150000AD8B42BEF00F0010A11
:10015800D8B445EF00F0030AD8B45FEF00F0010A05
:10016800D8B479EF00F0BBEF00F0BBEF00F01292CB
:100178001100000E066E04BEC6EF00F0C4EF00F0DA
:10018800CEEF00F0036C041ED8B0042A010E066EF0
:10019800CEEF00F002BED5EF00F0D3EF00F0DDEFB8
:1001A80000F0016C021ED8B0022A010E061ADDEF1B
:1001B80000F0000E086E000E076E03500410D8B44D
:1001C800E8EF00F0EAEF00F01EEF01F0010E056E17
:1001D800F4EF00F0D89003360436052AF4EF00F067
:1001E80004AEF9EF00F0FBEF00F0EEEF00F0FFEFE8
:1001F80000F0FFEF00F0D890073608360350015C96
:1002080004500258D8A00BEF01F00DEF01F014EFE5
:1002180001F00350015E0450025A078014EF01F008
:10022800D89004320332052EFFEF00F01EEF01F0E4
:100238001EEF01F00650D8B424EF01F026EF01F0CC
:100248002CEF01F0076C081ED8B0082A2CEF01F03B
:1002580007C001F008C002F032EF01F01200000EF2
:10026800066E02BE3CEF01F03AEF01F044EF01F0F8
:10027800016C021ED8B0022A010E066E44EF01F08E
:1002880004BE4BEF01F049EF01F051EF01F0036CB0
:10029800041ED8B0042A51EF01F003500410D8B45A
:1002A80058EF01F05AEF01F08AEF01F0010E056EE8
:1002B80064EF01F0D89003360436052A64EF01F0A4
:1002C80004AE69EF01F06BEF01F05EEF01F06FEF44
:1002D80001F06FEF01F00350015C04500258D8A000
:1002E80078EF01F07AEF01F080EF01F00350015E42
:1002F8000450025A80EF01F0D89004320332052EE0
:100308006FEF01F08AEF01F08AEF01F00650D8B4E0
:1003180090EF01F092EF01F098EF01F0016C021EEE
:10032800D8B0022A98EF01F001C001F002C002F033
:100338009EEF01F01200D58ED59AD59CD596D55052
:10034800F80B0109D56EF294F28AF28CF28E000E47
:10035800D76E000ED66E1200000E956E95CF94FFE4
:1003680094CF93FF93CF92FF000E8C6E8CCF8BFFB0
:100378008BCF8AFF8ACF89FF1200116A106A129008
:100388001292000EF86E0001CAEF01F09FEC01F026
:0C039800B0EC01F0CEEF01F007EF00F038
:020000040020DA
:08000000FFFFFFFFFFFFFFFF00
:020000040030CA
:0E000000FF881F00FF8381FF0FC00FE00F403D
:00000001FF
