:020000040000FA
:0400000007EF00F016
:100008007F8209ED00F002EF13F00600F3CF67F0EE
:10001800F4CF68F0F6CF69F0F7CF6AF0F8CF6BF05D
:10002800F5CF6CF0F2A41BEF00F01DEF00F087EFA6
:1000380002F0F294000ED76EF10ED66E7750755C12
:100048007650800A616E7850800A6158D8A02FEFE8
:1000580000F031EF00F060EF00F07350715C725007
:10006800800A616E7450800A6158D8A03EEF00F093
:1000780040EF00F060EF00F0000E766E000E756E37
:10008800000E726E000E716E000E0001F46F000E0D
:10009800F36F000EF26F000EF16F000EEE6F000EA0
:1000A800ED6F94809482F28A000E5E6E000E5D6E93
:1000B800E0EC11F060EF00F00001F34BF42BF14B92
:1000C800F22B7B50F35DF451800A616E7C50800AFC
:1000D8006158D8A072EF00F074EF00F050EF01F013
:1000E8007750755C7650800A616E7850800A615846
:1000F800D8B081EF00F083EF00F050EF01F0754ABF
:10010800762A75C061F076C062F0D89061366236A2
:10011800EBC063F0ECC064F0615063266250642267
:1001280063C0F6FF64C0F7FF0900F5CFF5F00A00D9
:10013800F5CFF6F07550E925616E7650EA21626ECA
:1001480061C0F6FF62C0F7FF0800F5506D6E6E6A79
:100158006D046E10D8A4B3EF00F0B5EF00F0BBEF5C
:1001680000F0000E7C6E300E7B6E15EF01F0020E73
:100178006D186E10D8A4C3EF00F0C5EF00F0CBEFF8
:1001880000F0000E7C6E180E7B6E15EF01F0040E69
:100198006D186E10D8A4D3EF00F0D5EF00F0DBEFA8
:1001A80000F0000E7C6E0C0E7B6E15EF01F0060E53
:1001B8006D186E10D8A4E3EF00F0E5EF00F0EBEF58
:1001C80000F0000E7C6E090E7B6E15EF01F0080E34
:1001D8006D186E10D8A4F3EF00F0F5EF00F0FBEF08
:1001E80000F0000E7C6E060E7B6E15EF01F0100E0F
:1001F8006D186E10D8A403EF01F005EF01F015EFAC
:1002080001F0000E7C6E030E7B6E15EF01F015EF0A
:1002180001F015EF01F015EF01F015EF01F015EF02
:1002280001F07BC001F07CC002F0000E046E0A0EE3
:10023800036E3BEC13F001C07BF002C07CF075C08C
:1002480061F076C062F0D89061366236EBC063F038
:10025800ECC064F0615063266250642263C0F6FF0C
:1002680064C0F7FF0900F5500900F510D8A43FEF66
:1002780001F041EF01F044EF01F0948047EF01F005
:10028800949047EF01F050EC13F0000E0001F46F6A
:10029800000EF36F50EF01F07D50F15DF251800ACE
:1002A800616E7E50800A6158D8A05DEF01F05FEF63
:1002B80001F087EF02F07350715C7250800A616E32
:1002C8007450800A6158D8B06CEF01F06EEF01F0FD
:1002D80087EF02F0714A722A400E016E420E026EDA
:1002E8000F0E036E000E046E71C061F072C062F0F2
:1002F800D8906136623679C063F07AC064F0615094
:1003080063266250642263C0F6FF64C0F7FF0900E9
:10031800F5CF65F00900F5CF66F065C005F066C059
:1003280006F0000E06BEFF0E076E086E42EC10F0D7
:1003380001C0BBFF02C0BCFF71C061F072C062F0B7
:10034800D8906136623679C063F07AC064F0615043
:1003580063266250642263C0F6FF64C0F7FF090099
:10036800F5500900F510D8A4BCEF01F0BEEF01F07C
:10037800C5EF01F09482000EBC6E000EBB6EF8EF64
:1003880001F09492400E016E420E026E0F0E036E43
:10039800000E046E71C061F072C062F0D8906136D0
:1003A800623679C063F07AC064F0615063266250A7
:1003B800642263C0F6FF64C0F7FF0900F5CF65F05B
:1003C8000900F5CF66F065C005F066C006F0000EBE
:1003D80006BEFF0E076E086E42EC10F001C0BBFFB0
:1003E80002C0BCFFF8EF01F071500001E725616E13
:1003F8007250E821626E61C0F6FF62C0F7FF080024
:10040800F5506F6E706A6F047010D8A40EEF02F08A
:1004180010EF02F016EF02F0000E7E6E300E7D6EC9
:1004280070EF02F0020E6F187010D8A41EEF02F0E1
:1004380020EF02F026EF02F0000E7E6E180E7D6EA1
:1004480070EF02F0040E6F187010D8A42EEF02F0AF
:1004580030EF02F036EF02F0000E7E6E0C0E7D6E6D
:1004680070EF02F0060E6F187010D8A43EEF02F07D
:1004780040EF02F046EF02F0000E7E6E090E7D6E30
:1004880070EF02F0080E6F187010D8A44EEF02F04B
:1004980050EF02F056EF02F0000E7E6E060E7D6EF3
:1004A80070EF02F0100E6F187010D8A45EEF02F013
:1004B80060EF02F070EF02F0000E7E6E030E7D6EAC
:1004C80070EF02F070EF02F070EF02F070EF02F0E0
:1004D80070EF02F070EF02F07DC001F07EC002F014
:1004E800000E046E0A0E036E3BEC13F001C07DF0A3
:1004F80002C07EF0000E0001F26F000EF16F87EF70
:1005080002F087EF02F06CC0F5FF6BC0F8FF6AC01D
:10051800F7FF69C0F6FF68C0F4FF67C0F3FF7F927A
:1005280011000001BC51800BC56FBC51BC25CB6FBD
:10053800BBAFA1EF02F0A3EF02F0A6EF02F0CB8170
:10054800A6EF02F0CB51D8B4ACEF02F0AEEF02F058
:10055800C3EF02F0CB29D8A4B4EF02F0B6EF02F053
:10056800C0EF02F0000EB96F000EBA6F000EBB6F3D
:10057800000EBC6FC0EF02F0BB8FCDEF02F0000E93
:10058800B96F000EBA6F000EBB6F000EBC6FCDEFD7
:1005980002F0C051800BC51BC051C025CA6FBFAF48
:1005A800D8EF02F0DAEF02F0DDEF02F0CA81DDEFFA
:1005B80002F0CA51D8B4E3EF02F0E5EF02F0FAEF27
:1005C80002F0CA29D8A4EBEF02F0EDEF02F0F7EF42
:1005D80002F0000EBD6F000EBE6F000EBF6F000E62
:1005E800C06FF7EF02F0BF8F02EF03F0000EBD6F90
:1005F800000EBE6F000EBF6F000EC06FCA51D8B498
:1006080008EF03F00AEF03F014EF03F0CB51D8A47E
:1006180010EF03F012EF03F020EF03F014EF03F0F4
:10062800000EB96F000EBA6F000EBB6F000EBC6FE4
:10063800CCEF04F0CCEF04F0BF51B903F3CFD0F006
:10064800F4CFD1F0D051C66FC76BC86BC96BD1510D
:10065800CC6FCD6BCE6BCF6BBE51BA03F3CFD0F05E
:10066800F4CFD1F0D051C627000EC723C823C92321
:10067800D151CC27000ECD23CE23CF23BD51BB03B0
:10068800F3CFD0F0F4CFD1F0D051C627000EC72356
:10069800C823C923D151CC27000ECD23CE23CF2385
:1006A800C8C0C9F0C7C0C8F0C6C0C7F0C66BBD5146
:1006B800BA03F3CFD0F0F4CFD1F0D051C627D1513F
:1006C800C723000EC823000EC923BE51B903F3CFB8
:1006D800D0F0F4CFD1F0D051C627D151C723000EA6
:1006E800C823000EC923C8C0C9F0C7C0C8F0C6C017
:1006F800C7F0C66BBD51B903F3CFD0F0F4CFD1F03A
:10070800D051C627D151C723000EC823000EC923D4
:10071800BF51BA03F3CFD0F0F4CFD1F0D051CC27EA
:10072800D151CD23000ECE23000ECF23BE51BB03E3
:10073800F3CFD0F0F4CFD1F0D051CC27D151CD2385
:10074800000ECE23000ECF23BF51BB03F3CFD0F052
:10075800F4CFD1F0D051C16FD151C26FC36BC46B0C
:10076800C3C0C4F0C2C0C3F0C1C0C2F0C16BC151A4
:10077800CC27C251CD23C351CE23C451CF23C6C0E9
:10078800C1F0C7C0C2F0C8C0C3F0C9C0C4F0190ED8
:10079800D3EF03F0D890C433C333C233C133E82E48
:1007A800CEEF03F0C151CC27C251CD23C351CE2384
:1007B800C451CF23C8C0C9F0C7C0C8F0C6C0C7F06D
:1007C800C66BCA51CBC0C1F0C26BC127000EC22391
:1007D800820EC125D06FFF0EC221D16F0BEF04F03E
:1007E800D890CC37CD37CE37CF37C9AFFEEF03F02F
:1007F80000EF04F001EF04F0CC81D890C637C7377A
:10080800C837C937D007D8A0D1070BEF04F0CEAF4F
:1008180010EF04F012EF04F0F4EF03F014EF04F01B
:10082800000ECA6FC9AF1BEF04F01DEF04F045EFCF
:1008380004F0FF0EC615C16FFF0EC715C26FFF0E7D
:10084800C815C36F7F0EC915C46FC151C211C3113A
:10085800C411D8B432EF04F034EF04F038EF04F0E8
:10086800010ECA6F45EF04F0CCA13DEF04F03FEF55
:1008780004F045EF04F0010ECA6F45EF04F045EFB0
:1008880004F0CA51D8B44BEF04F04DEF04F075EF03
:1008980004F0010ECC27000ECD23CE23CF23CFA109
:1008A80058EF04F05AEF04F075EF04F0CCC0C1F033
:1008B800CDC0C2F0CEC0C3F0CFC0C4F0C435C4337D
:1008C800C333C233C133C1C0CCF0C2C0CDF0C3C042
:1008D800CEF0C4C0CFF0D04BD12B75EF04F075EF3C
:1008E80004F0D1BF80EF04F0D15108E1D029D8A09D
:1008F80080EF04F082EF04F08CEF04F0000ECC6F70
:10090800000ECD6F800ECE6F7F0ECF6FC0EF04F05C
:10091800D1BF99EF04F0D15106E1D005D8B097EFD7
:1009280004F099EF04F0A5EF04F0000ECC6F000E70
:10093800CD6F000ECE6F000ECF6F000EC56FC0EFEB
:1009480004F0D0C0CBF0FF0ECC17FF0ECD177F0EF2
:10095800CE17000ECF17CBA1B4EF04F0B6EF04F01A
:10096800B9EF04F0CE8FB9EF04F0D890CB31CF6F48
:10097800C0EF04F0C0EF04F0C551CF13CCC0B9F0FC
:10098800CDC0BAF0CEC0BBF0CFC0BCF0CCEF04F005
:1009980012003D50800B466E3D503D244C6E3CAEDF
:1009A800D8EF04F0DAEF04F0DDEF04F04C80DDEF6F
:1009B80004F04C50D8B4E3EF04F0E5EF04F0FAEF9C
:1009C80004F04C28D8A4EBEF04F0EDEF04F0F7EFB7
:1009D80004F0000E3A6E000E3B6E000E3C6E000EE8
:1009E8003D6EF7EF04F03C8E04EF05F0000E3A6E12
:1009F800000E3B6E000E3C6E000E3D6E04EF05F0DF
:100A08004150800B461A415041244B6E40AE0FEFC7
:100A180005F011EF05F014EF05F04B8014EF05F029
:100A28004B50D8B41AEF05F01CEF05F031EF05F084
:100A38004B28D8A422EF05F024EF05F02EEF05F09F
:100A4800000E3E6E000E3F6E000E406E000E416EB0
:100A58002EEF05F0408E39EF05F0000E3E6E000EC9
:100A68003F6E000E406E000E416E4B50D8B43FEF03
:100A780005F041EF05F04BEF05F04C50D8A447EFD7
:100A880005F049EF05F057EF05F04BEF05F0000EC4
:100A98003A6E000E3B6E000E3C6E000E3D6E03EF8C
:100AA80007F003EF07F040503A02F3CF51F0F4CFCC
:100AB80052F05150476E486A496A4A6A52504D6E20
:100AC8004E6A4F6A506A3F503B02F3CF51F0F4CF61
:100AD80052F051504726000E482249224A225250CD
:100AE8004D26000E4E224F2250223E503C02F3CF9C
:100AF80051F0F4CF52F051504726000E48224922B7
:100B08004A2252504D26000E4E224F22502249C0F2
:100B18004AF048C049F047C048F0476A3E503B0297
:100B2800F3CF51F0F4CF52F051504726525048229B
:100B3800000E4922000E4A223F503A02F3CF51F0EC
:100B4800F4CF52F05150472652504822000E492205
:100B5800000E4A2249C04AF048C049F047C048F050
:100B6800476A3E503A02F3CF51F0F4CF52F0515059
:100B7800472652504822000E4922000E4A22405071
:100B88003B02F3CF51F0F4CF52F051504D26525062
:100B98004E22000E4F22000E50223F503C02F3CF4F
:100BA80051F0F4CF52F051504D2652504E22000EC3
:100BB8004F22000E502240503C02F3CF51F0F4CFA8
:100BC80052F05150426E5250436E446A456A44C0D6
:100BD80045F043C044F042C043F0426A42504D26BB
:100BE80043504E2244504F224550502247C042F0B5
:100BF80048C043F049C044F04AC045F0190E0AEF16
:100C080006F0D8904532443243324232E82E05EF9E
:100C180006F042504D2643504E2244504F22455034
:100C2800502249C04AF048C049F047C048F0476AD6
:100C38004B504CC042F0436A4226000E4322820EBB
:100C48004224516EFF0E4320526E42EF06F0D890B8
:100C58004D364E364F3650364AAE35EF06F037EF42
:100C680006F038EF06F04D80D890473648364936BA
:100C78004A365106D8A0520642EF06F04FAE47EF6B
:100C880006F049EF06F02BEF06F04BEF06F0000EEA
:100C98004B6E4AAE52EF06F054EF06F07CEF06F0CA
:100CA800FF0E4714426EFF0E4814436EFF0E4914A0
:100CB800446E7F0E4A14456E42504310441045104E
:100CC800D8B469EF06F06BEF06F06FEF06F0010E8F
:100CD8004B6E7CEF06F04DA074EF06F076EF06F051
:100CE8007CEF06F0010E4B6E7CEF06F07CEF06F011
:100CF8004B50D8B482EF06F084EF06F0ACEF06F064
:100D0800010E4D26000E4E224F22502250A08FEF8A
:100D180006F091EF06F0ACEF06F04DC042F04EC081
:100D280043F04FC044F050C045F04534453244329A
:100D38004332423242C04DF043C04EF044C04FF0FF
:100D480045C050F0514A522AACEF06F0ACEF06F01D
:100D580052BEB7EF06F0525008E15128D8A0B7EFBD
:100D680006F0B9EF06F0C3EF06F0000E4D6E000E68
:100D78004E6E800E4F6E7F0E506EF7EF06F052BE2D
:100D8800D0EF06F0525006E15104D8B0CEEF06F08D
:100D9800D0EF06F0DCEF06F0000E4D6E000E4E6E42
:100DA800000E4F6E000E506E000E466EF7EF06F006
:100DB80051C04CF0FF0E4D16FF0E4E167F0E4F160B
:100DC800000E50164CA0EBEF06F0EDEF06F0F0EF3A
:100DD80006F04F8EF0EF06F0D8904C30506EF7EFDB
:100DE80006F0F7EF06F0465050124DC03AF04EC0EC
:100DF8003BF04FC03CF050C03DF003EF07F012004D
:100E08000001A351800BB06FA351A325B76FA2AF08
:100E180010EF07F012EF07F015EF07F0B78115EFA5
:100E280007F0B751D8B41BEF07F01DEF07F034EF08
:100E380007F0B729D8A423EF07F025EF07F02FEF25
:100E480007F0000EA06F000EA16F000EA26F000E3B
:100E5800A36F2FEF07F0A28F000EA36F3EEF07F0EE
:100E6800000EA06F000EA16F000EA26F000EA36F00
:100E78003EEF07F0A751800BB01BA751A725B86F0D
:100E8800A6AF49EF07F04BEF07F04EEF07F0B88138
:100E98004EEF07F0B851D8B454EF07F056EF07F00B
:100EA8006DEF07F0B829D8A45CEF07F05EEF07F004
:100EB80068EF07F0000EA46F000EA56F000EA66F76
:100EC800000EA76F68EF07F0A68F000EA76F77EFE9
:100ED80007F0000EA46F000EA56F000EA66F000E9F
:100EE800A76F77EF07F0A451A511A611A711D8A4F1
:100EF80080EF07F082EF07F09CEF07F0000EA06F7D
:100F0800000EA16F000EA26F000EA36F800EA21339
:100F18007F0EA313B051A313A0C0A0F0A1C0A1F0ED
:100F2800A2C0A2F0A3C0A3F014EF09F014EF09F0D7
:100F3800B751D8A4A2EF07F0A4EF07F0B8EF07F075
:100F4800000EA06F000EA16F000EA26F000EA36F1F
:100F5800A0C0A0F0A1C0A1F0A2C0A2F0A3C0A3F0BD
:100F680014EF09F014EF09F0B851A86FA96BA81F86
:100F7800A91FA84BA92BB751AA6FAB6BA851AA27D9
:100F8800A951AB237F0EAA25B16F000EAB21B26F1A
:100F9800A0C0ACF0A1C0ADF0A2C0AEF0A3C0AFF04D
:100FA800000EA06F000EA16F000EA26F000EA36FBF
:100FB800000EB36F000EB46F000EB56F000EB66F63
:100FC800000EB86F24EF08F0B851D8B4EEEF07F070
:100FD800F0EF07F009EF08F0D890AC37AD37AE372F
:100FE800AF37D890A037A137A237A337B6AFFFEFF6
:100FF80007F001EF08F002EF08F0A081D890B337AE
:10100800B437B537B63709EF08F0A451AC5DA55130
:10101800AD59A651AE59A751AF59D8A016EF08F04F
:1010280018EF08F023EF08F0B68DA451AC5FA55176
:10103800AD5BA651AE5BA751AF5B23EF08F0B82BB1
:10104800190EB8652AEF08F02CEF08F0E8EF07F062
:101058002EEF08F0AC51AD11AE11AF11D8B437EF87
:1010680008F039EF08F055EF08F0B38155EF08F0B4
:1010780055EF08F0D890A037A137A237A337B6AFFD
:1010880048EF08F04AEF08F04BEF08F0A081D8903D
:10109800B337B437B537B637B107D8A0B20755EF6D
:1010A80008F0A2AF5AEF08F05CEF08F03EEF08F046
:1010B8005EEF08F0000EB86FB6AF65EF08F067EFA7
:1010C80008F08FEF08F0FF0EB315A86FFF0EB415E8
:1010D800A96FFF0EB515AA6F7F0EB615AB6FA85195
:1010E800A911AA11AB11D8B47CEF08F07EEF08F073
:1010F80082EF08F0010EB86F8FEF08F0A0A187EF1C
:1011080008F089EF08F08FEF08F0010EB86F8FEF45
:1011180008F08FEF08F0B851D8B495EF08F097EFC2
:1011280008F0BFEF08F0010EA027000EA123A223AC
:10113800A323A3A1A2EF08F0A4EF08F0BFEF08F0E3
:10114800A0C0A8F0A1C0A9F0A2C0AAF0A3C0ABF0AB
:10115800AB35AB33AA33A933A833A8C0A0F0A9C0D4
:10116800A1F0AAC0A2F0ABC0A3F0B14BB22BBFEF65
:1011780008F0BFEF08F0B2BFCAEF08F0B25108E1BB
:10118800B129D8A0CAEF08F0CCEF08F0D9EF08F0E1
:10119800000EB26FB169000EA06F000EA16F000EB5
:1011A800A26F000EA36FD9EF08F0B2BFE6EF08F008
:1011B800B25106E1B105D8B0E4EF08F0E6EF08F067
:1011C800F6EF08F0000EB26F000EB16F000EA06FC0
:1011D800000EA16F000EA26F000EA36F000EB06F7D
:1011E800F6EF08F0B1C0B7F0B7A1FDEF08F0FFEFD8
:1011F80008F002EF09F0A28F05EF09F0A29F05EFB2
:1012080009F0D890B731A36FB051A313A0C0A0F0D4
:10121800A1C0A1F0A2C0A2F0A3C0A3F014EF09F0EE
:1012280012002450800B316E24502424386E23AED3
:1012380020EF09F022EF09F025EF09F0388025EFBB
:1012480009F03850D8B42BEF09F02DEF09F044EF2E
:1012580009F03828D8A433EF09F035EF09F03FEF4B
:1012680009F0000E216E000E226E000E236E000E95
:10127800246E3FEF09F0238E000E246E4EEF09F026
:10128800000E216E000E226E000E236E000E246EDC
:101298004EEF09F02850800B311A28502824396E57
:1012A80027AE59EF09F05BEF09F05EEF09F03980DE
:1012B8005EEF09F03950D8B464EF09F066EF09F031
:1012C8007DEF09F03928D8A46CEF09F06EEF09F02A
:1012D80078EF09F0000E256E000E266E000E276EC0
:1012E800000E286E78EF09F0278E000E286E87EF23
:1012F80009F0000E256E000E266E000E276E000EF9
:10130800286E87EF09F02550261027102810D8A43A
:1013180090EF09F092EF09F0ACEF09F0000E216EA2
:10132800000E226E000E236E000E246E800E231215
:101338007F0E24123150241221C021F022C022F045
:1013480023C023F024C024F024EF0BF024EF0BF08B
:101358003850D8A4B2EF09F0B4EF09F0C8EF09F09B
:10136800000E216E000E226E000E236E000E246EFB
:1013780021C021F022C022F023C023F024C024F091
:1013880024EF0BF024EF0BF03950296E2A6A291E3E
:101398002A1E294A2A2A38502B6E2C6A29502B26B5
:1013A8002A502C227F0E2B24326E000E2C20336EF6
:1013B80021C02DF022C02EF023C02FF024C030F021
:1013C800000E216E000E226E000E236E000E246E9B
:1013D800000E346E000E356E000E366E000E376E3F
:1013E800000E396E34EF0AF03950D8B4FEEF09F028
:1013F80000EF0AF019EF0AF0D8902D362E362F3666
:101408003036D890213622362336243637AE0FEFC1
:101418000AF011EF0AF012EF0AF02180D890343662
:1014280035363636373619EF0AF025502D5C2650FA
:101438002E5827502F5828503058D8A026EF0AF099
:1014480028EF0AF033EF0AF0378C25502D5E26502E
:101458002E5A27502F5A2850305A33EF0AF0392A7B
:10146800190E39643AEF0AF03CEF0AF0F8EF09F088
:101478003EEF0AF02D502E102F103010D8B447EF41
:101488000AF049EF0AF065EF0AF0348065EF0AF0D8
:1014980065EF0AF0D890213622362336243637AE47
:1014A80058EF0AF05AEF0AF05BEF0AF02180D89063
:1014B80034363536363637363206D8A0330665EF39
:1014C8000AF023AE6AEF0AF06CEF0AF04EEF0AF06A
:1014D8006EEF0AF0000E396E37AE75EF0AF077EF4F
:1014E8000AF09FEF0AF0FF0E3414296EFF0E351430
:1014F8002A6EFF0E36142B6E7F0E37142C6E295071
:101508002A102B102C10D8B48CEF0AF08EEF0AF0AA
:1015180092EF0AF0010E396E9FEF0AF021A097EFC3
:101528000AF099EF0AF09FEF0AF0010E396E9FEF6B
:101538000AF09FEF0AF03950D8B4A5EF0AF0A7EFE8
:101548000AF0CFEF0AF0010E2126000E22222322F4
:10155800242224A0B2EF0AF0B4EF0AF0CFEF0AF089
:1015680021C029F022C02AF023C02BF024C02CF07F
:101578002C342C322B322A32293229C021F02AC0AD
:1015880022F02BC023F02CC024F0324A332ACFEFAC
:101598000AF0CFEF0AF033BEDAEF0AF0335008E171
:1015A8003228D8A0DAEF0AF0DCEF0AF0E9EF0AF007
:1015B800000E336E3268000E216E000E226E000E91
:1015C800236E000E246EE9EF0AF033BEF6EF0AF040
:1015D800335006E13204D8B0F4EF0AF0F6EF0AF01F
:1015E80006EF0BF0000E336E000E326E000E216E09
:1015F800000E226E000E236E000E246E000E316E59
:1016080006EF0BF032C038F038A00DEF0BF00FEFFB
:101618000BF012EF0BF0238E15EF0BF0239E15EF56
:101628000BF0D8903830246E3150241221C021F0AC
:1016380022C022F023C023F024C024F024EF0BF0B2
:10164800120000019A6F00019A51D8B42EEF0BF0E6
:1016580030EF0BF052EF0BF095BF37EF0BF035EF93
:101668000BF052EF0BF092C096F093C097F094C035
:1016780098F095C099F0961F971F981F991F962B61
:10168800000E97239823992396C09CF097C09DF04D
:1016980098C09EF099C09FF05CEF0BF092C09CF050
:1016A80093C09DF094C09EF095C09FF05CEF0BF046
:1016B8009251931194119511D8A465EF0BF067EF2F
:1016C8000BF073EF0BF0000E926F000E936F000E8D
:1016D800946F000E956F14EF0CF014EF0CF0960E4B
:1016E8009B6F7FEF0BF09B2BD8909F339E339D33DE
:1016F8009C337FEF0BF0000E9C15966F000E9D1526
:10170800976F000E9E15986FFE0E9F15996F965154
:10171800971198119911D8A494EF0BF096EF0BF04C
:1017280077EF0BF0A6EF0BF0A6EF0BF09B2B010E5B
:101738009C27000E9D239E239F23D8909F339E3382
:101748009D339C33000E9C15966F000E9D15976F68
:10175800000E9E15986FFF0E9F15996F9651971161
:1017680098119911D8A4BBEF0BF0BDEF0BF09AEFCD
:101778000BF0C9EF0BF0C9EF0BF09B07D8909C3723
:101788009D379E379F37C9EF0BF09EBFCEEF0BF00A
:10179800D0EF0BF0DAEF0BF0020E9B61D6EF0BF0F7
:1017A800D8EF0BF0C1EF0BF0DAEF0BF09BB1DFEFE6
:1017B8000BF0E1EF0BF0E4EF0BF09E9FE4EF0BF082
:1017C800D8909B339BC096F0976B986B996B96C09B
:1017D80099F0986B976B966B96519C1397519D1344
:1017E80098519E1399519F139A51D8B4FEEF0BF05C
:1017F80000EF0CF00AEF0CF095BF07EF0CF005EFC7
:101808000CF00AEF0CF09F8F0AEF0CF09CC092F0DE
:101818009DC093F09EC094F09FC095F014EF0CF01B
:1018280012001B6E1B50D8B41CEF0CF01EEF0CF00E
:1018380040EF0CF016BE25EF0CF023EF0CF040EF54
:101848000CF013C017F014C018F015C019F016C02A
:101858001AF0171E181E191E1A1E172A000E182213
:1018680019221A2217C01DF018C01EF019C01FF047
:101878001AC020F04AEF0CF013C01DF014C01EF07F
:1018880015C01FF016C020F04AEF0CF013501410CA
:1018980015101610D8A453EF0CF055EF0CF061EFAB
:1018A8000CF0000E136E000E146E000E156E000E76
:1018B800166E02EF0DF002EF0DF0960E1C6E6DEF36
:1018C8000CF01C2AD89020321F321E321D326DEFC8
:1018D8000CF0000E1D14176E000E1E14186E000E6C
:1018E8001F14196EFE0E20141A6E175018101910B6
:1018F8001A10D8A482EF0CF084EF0CF065EF0CF00E
:1019080094EF0CF094EF0CF01C2A010E1D26000E2B
:101918001E221F222022D89020321F321E321D3252
:10192800000E1D14176E000E1E14186E000E1F14E4
:10193800196EFF0E20141A6E1750181019101A106D
:10194800D8A4A9EF0CF0ABEF0CF088EF0CF0B7EFD0
:101958000CF0B7EF0CF01C06D8901D361E361F365B
:101968002036B7EF0CF01FBEBCEF0CF0BEEF0CF04A
:10197800C8EF0CF0020E1C60C4EF0CF0C6EF0CF0C0
:10198800AFEF0CF0C8EF0CF01CB0CDEF0CF0CFEFC0
:101998000CF0D2EF0CF01F9ED2EF0CF0D8901C3256
:1019A8001CC017F0186A196A1A6A17C01AF0196A5F
:1019B800186A176A17501D1218501E1219501F1254
:1019C8001A5020121B50D8B4ECEF0CF0EEEF0CF0CC
:1019D800F8EF0CF016BEF5EF0CF0F3EF0CF0F8EFA3
:1019E8000CF0208EF8EF0CF01DC013F01EC014F0A0
:1019F8001FC015F020C016F002EF0DF012009492EF
:101A0800020EBA6EA190000EB36E000EB26EC00E3A
:101A1800B16E030EBC6EE80EBB6EB1800001E051E2
:101A2800E111D8A41AEF0DF01CEF0DF036EF0DF010
:101A3800150EEB6F7C0EEC6FB20EE96F7E0EEA6F3F
:101A4800230E796E7A0E7A6EB90EE76F7D0EE86F07
:101A5800000E786ED20E776E000E746EF90E736EED
:101A680075EF0DF0E005E111D8A43DEF0DF03FEF63
:101A78000DF059EF0DF0870EEB6F7F0EEC6FD70E60
:101A8800E96F7F0EEA6F870E796E7F0E7A6ED70E3A
:101A9800E76F7F0EE86F000E786E1A0E776E000EF5
:101AA800746E1A0E736E75EF0DF0BB0EEB6F7F0E32
:101AB800EC6FF10EE96F7F0EEA6FBB0E796E7F0E49
:101AC8007A6EF10EE76F7F0EE86F000E786E0E0EDD
:101AD800776E000E746E0E0E736E75EF0DF075EF67
:101AE8000DF0000E766E000E756E000E726E000E12
:101AF800716E000E876F100E866F000E896F000ED4
:101B0800886FDCEC10F0000E0001876F100E866FF6
:101B1800000E896F010E886FDCEC10F06FEC13F08B
:101B280062EC13F09494000E8B6EF40E00018E6F2D
:101B3800010E8F6F000E906F000E916F4BEC12F03C
:101B4800000E0001DD6F000EDC6F70EC11F076EC1A
:101B580013F012000001D435D535DB6FDB51D8A462
:101B6800B8EF0DF0BAEF0DF0C6EF0DF0000ED26F22
:101B7800000ED36F000ED46F000ED56F57EF0EF026
:101B880057EF0EF0D2C0D6F0D3C0D7F0D4C0D8F0FB
:101B9800D5C0D9F0200ED6EF0DF0D890D933D83370
:101BA800D733D633E82ED1EF0DF0D651DA6FD48F74
:101BB800FF0ED217FF0ED317FF0ED417000ED5173E
:101BC800960EDB5FDBBFEDEF0DF0EBEF0DF011EFE5
:101BD8000EF0DB51800A970FD8B0F5EF0DF0F7EF54
:101BE8000DF005EF0EF0000ED26F000ED36F000E51
:101BF800D46F000ED56F57EF0EF057EF0EF005EFCC
:101C08000EF0D890D533D433D333D233DB3F05EF3E
:101C18000EF03BEF0EF03BEF0EF01F0EDB6517EFFB
:101C28000EF019EF0EF02FEF0EF0000ED26F000E2F
:101C3800D36F000ED46F000ED56F57EF0EF057EF2D
:101C48000EF02FEF0EF0D890D237D337D437D537E0
:101C5800DB072FEF0EF0DB51D8A435EF0EF037EF8E
:101C68000EF027EF0EF03BEF0EF03BEF0EF0DA51DF
:101C7800D8B441EF0EF043EF0EF04DEF0EF0D51F44
:101C8800D41FD31FD26D000ED323D423D5234DEFF9
:101C98000EF0D2C0D2F0D3C0D3F0D4C0D4F0D5C0A7
:101CA800D5F057EF0EF01200553456345C6E5C5088
:101CB800D8A461EF0EF063EF0EF06FEF0EF0000E98
:101CC800536E000E546E000E556E000E566E00EFE9
:101CD8000FF000EF0FF053C057F054C058F055C044
:101CE80059F056C05AF0200E7FEF0EF0D8905A32B5
:101CF800593258325732E82E7AEF0EF057505B6E51
:101D0800558EFF0E5316FF0E5416FF0E5516000E75
:101D18005616960E5C5E5CBE96EF0EF094EF0EF0D3
:101D2800BAEF0EF05C50800A970FD8B09EEF0EF015
:101D3800A0EF0EF0AEEF0EF0000E536E000E546ED4
:101D4800000E556E000E566E00EF0FF000EF0FF00C
:101D5800AEEF0EF0D89056325532543253325C3EC4
:101D6800AEEF0EF0E4EF0EF0E4EF0EF01F0E5C6441
:101D7800C0EF0EF0C2EF0EF0D8EF0EF0000E536E6B
:101D8800000E546E000E556E000E566E00EF0FF0EA
:101D980000EF0FF0D8EF0EF0D89053365436553682
:101DA80056365C06D8EF0EF05C50D8A4DEEF0EF085
:101DB800E0EF0EF0D0EF0EF0E4EF0EF0E4EF0EF0EF
:101DC8005B50D8B4EAEF0EF0ECEF0EF0F6EF0EF041
:101DD800561E551E541E536C000E54225522562270
:101DE800F6EF0EF053C053F054C054F055C055F000
:101DF80056C056F000EF0FF0120095809582839040
:101E0800839283B00AEF0FF00CEF0FF023EF0FF07F
:101E180083B211EF0FF013EF0FF023EF0FF0000E66
:101E28000001EE6F000EED6F94809482F28A000E2E
:101E3800DD6F000EDC6F70EC11F023EF0FF0000186
:101E4800ED51EE11D8A42BEF0FF02DEF0FF047EF67
:101E58000FF083A032EF0FF034EF0FF047EF0FF0E1
:101E680083B239EF0FF03BEF0FF047EF0FF0000EA2
:101E7800EE6F010EED6F000EE16F000EE06F03ECE8
:101E88000DF093EF0FF00001ED51EE11D8A44FEFD4
:101E98000FF051EF0FF06BEF0FF083A256EF0FF03A
:101EA80058EF0FF06BEF0FF083B05DEF0FF05FEFBF
:101EB8000FF06BEF0FF0000EEE6F010EED6F000EDE
:101EC800E16F010EE06F03EC0DF093EF0FF00001EE
:101ED800ED51EE11D8A473EF0FF075EF0FF093EFFB
:101EE8000FF083A07AEF0FF07CEF0FF093EF0FF075
:101EF80083A281EF0FF083EF0FF093EF0FF0000E46
:101F0800EE6F010EED6F000EE16F020EE06F03EC55
:101F18000DF093EF0FF093EF0FF093EF0FF0A1A0F8
:101F280098EF0FF09AEF0FF005EF0FF0A190000E69
:101F3800B36E000EB26E05EF0FF005EF0FF005EF70
:101F48000FF007EF00F0000E0001896F87BFB1EFB7
:101F58000FF0AFEF0FF0BDEF0FF0871F861F851F43
:101F6800846D000E852386238723010E896FBDEFBC
:101F78000FF083BFC4EF0FF0C2EF0FF0D0EF0FF0F8
:101F8800831F821F811F806D000E8123822383237C
:101F9800010E891BD0EF0FF0000E8A6F000E8B6FB9
:101FA800000E8C6F000E8D6F84518511861187117C
:101FB800D8B4E1EF0FF0E3EF0FF025EF10F0010ECA
:101FC800886FEFEF0FF0D8908437853786378737DB
:101FD800882BEFEF0FF087AFF4EF0FF0F6EF0FF06D
:101FE800E7EF0FF0FAEF0FF0FAEF0FF0D8908A371B
:101FF8008B378C378D378451805D85518159865157
:10200800825987518359D8A00CEF10F00EEF10F0C9
:1020180019EF10F08451805F8551815B8651825B96
:102028008751835B8A8119EF10F0D8908733863304
:1020380085338433882FFAEF0FF025EF10F025EF62
:1020480010F08951D8B42BEF10F02DEF10F037EFC6
:1020580010F08D1F8C1F8B1F8A6D000E8B238C2315
:102068008D2337EF10F08AC080F08BC081F08CC0D0
:1020780082F08DC083F041EF10F01200000E0A6E5E
:1020880008BE4BEF10F049EF10F057EF10F0081EA4
:10209800071E061E056C000E062207220822010EE6
:1020A8000A6E57EF10F004BE5EEF10F05CEF10F010
:1020B8006AEF10F0041E031E021E016C000E0222BD
:1020C80003220422010E0A1A6AEF10F0000E0B6EAA
:1020D800000E0C6E000E0D6E000E0E6E05500610F2
:1020E80007100810D8B47BEF10F07DEF10F0BFEFA9
:1020F80010F0010E096E89EF10F0D89005360636FB
:1021080007360836092A89EF10F008AE8EEF10F06E
:1021180090EF10F081EF10F094EF10F094EF10F0C2
:10212800D8900B360C360D360E360550015C06502D
:1021380002580750035808500458D8A0A6EF10F0CA
:10214800A8EF10F0B3EF10F00550015E0650025AE8
:102158000750035A0850045A0B80B3EF10F0D89078
:102168000832073206320532092E94EF10F0BFEF1D
:1021780010F0BFEF10F00A50D8B4C5EF10F0C7EF59
:1021880010F0D1EF10F00E1E0D1E0C1E0B6C000E81
:102198000C220D220E22D1EF10F00BC001F00CC062
:1021A80002F00DC003F00EC004F0DBEF10F01200D7
:1021B800000186058711D8A4E4EF10F0E6EF10F0CF
:1021C800ECEF10F0000E8B6F300E8A6F4CEF11F0B1
:1021D800020E86198711D8A4F4EF10F0F6EF10F06C
:1021E800FCEF10F0000E8B6F180E8A6F4CEF11F099
:1021F800040E86198711D8A404EF11F006EF11F028
:102208000CEF11F0000E8B6F0C0E8A6F4CEF11F073
:10221800060E86198711D8A414EF11F016EF11F0E5
:102228001CEF11F0000E8B6F090E8A6F4CEF11F046
:10223800080E86198711D8A424EF11F026EF11F0A3
:102248002CEF11F0000E8B6F060E8A6F4CEF11F019
:10225800100E86198711D8A434EF11F036EF11F05B
:102268003CEF11F0000E8B6F030E8A6F4CEF11F0EC
:10227800000E8B6F010E8A6F4CEF11F04CEF11F0CE
:102288004CEF11F04CEF11F04CEF11F04CEF11F056
:102298008AC080F08BC081F0000E836F0A0E826FB7
:1022A80025EC13F080C08AF081C08BF000018851C2
:1022B8008911D8B462EF11F064EF11F06AEF11F0F0
:1022C8008AC07BF08BC07CF06EEF11F08AC07DF085
:1022D8008BC07EF000F01200040E0001DD5DD8B066
:1022E80078EF11F07AEF11F0DFEF11F0B3EC12F0A4
:1022F80000018EC092F08FC093F0000E93BFFF0EC6
:10230800946F956F010E25EC0BF092C0BDF093C051
:10231800BEF094C0BFF095C0C0F0000E0001A46FDD
:10232800C00EA56F7F0EA66F440EA76FDCC092F09B
:10233800DDC093F0946B956B000E25EC0BF092C00A
:10234800A0F093C0A1F094C0A2F095C0A3F004EC53
:1023580007F0A0C0B9F0A1C0BAF0A2C0BBF0A3C0FA
:10236800BCF095EC02F0B9C0D2F0BAC0D3F0BBC053
:10237800D4F0BCC0D5F0AEEC0DF0D2C0DCF0D3C0C8
:10238800DDF0BD9A0001DCB1CCEF11F0CFEF11F018
:10239800BD88D0EF11F0BD98DCC0DEF0DDC0DFF005
:1023A8000001D890DF33DE33D890DF33DE33DE51DF
:1023B800BE6EDFEF11F01200040E5E5CD8B0E7EFDE
:1023C80011F0E9EF11F04AEF12F0DBEC12F00FC058
:1023D80013F010C014F0000E14BEFF0E156E166E2A
:1023E800010E15EC0CF013C03EF014C03FF015C000
:1023F80040F016C041F0000E256EC00E266E7F0E0E
:10240800276E440E286E5DC013F05EC014F0156A86
:10241800166A000E15EC0CF013C021F014C022F05F
:1024280015C023F016C024F015EC09F021C03AF0CD
:1024380022C03BF023C03CF024C03DF0CDEC04F0BA
:102448003AC053F03BC054F03CC055F03DC056F084
:1024580058EC0EF053C05DF054C05EF0BD9A5DB00C
:1024680038EF12F03BEF12F0BD883CEF12F0BD9848
:102478005DC05FF05EC060F0D89060325F32D89087
:1024880060325F325F50BE6E4AEF12F01200000EEB
:102498000001806F090E816F3D0E826F000E836F01
:1024A8008EC092F08FC093F090C094F091C095F0D8
:1024B800020ED8909237933794379537E82E5DEF10
:1024C80012F0040ED8909237933794379537E82E48
:1024D80066EF12F092C084F093C085F094C086F045
:1024E80095C087F0A7EC0FF000018005CB6E8EC079
:1024F800F5F08FC0F6F01200000E016E090E026EA4
:102508003D0E036E000E046E0FC013F010C014F0E1
:1025180011C015F012C016F0020ED89013361436FA
:1025280015361636E82E91EF12F0040ED8901336B1
:10253800143615361636E82E9AEF12F013C005F049
:1025480014C006F015C007F016C008F042EC10F0F1
:102558000104CB6E0FC0F5F010C0F6F01200000EAB
:102568000001806F090E816F3D0E826F000E836F30
:10257800F5C090F0F6C091F0903B913BF00E9117AA
:1025880090510F0B9113F00E901790C084F091C0EA
:1025980085F0000E85BFFF0E866F876FA7EC0FF0E2
:1025A80080C08EF081C08FF0DAEF12F01200000EBA
:1025B800016E090E026E3D0E036E000E046EF5C02C
:1025C80011F0F6C012F0113A123AF00E121611502C
:1025D8000F0B1212F00E111611C005F012C006F002
:1025E800000E06BEFF0E076E086E42EC10F001C02A
:1025F8000FF002C010F001EF13F01200FE0EF66E9D
:10260800260EF76E000EF86E00EE7BF010EE04F06A
:102618000900F5CFEEFFE550E150FAE100EEE7F0F2
:10262800100EEE6AE806FDE100EE71F00A0EEE6AA1
:10263800E806FDE17F907F92000EF86E000101EF41
:102648000FF0000180518203F3CF84F0F4CF85F0BE
:1026580080518303F350852781518203F3508527E6
:1026680084C080F085C081F03AEF13F01200015069
:102678000302F3CF05F0F4CF06F001500402F35043
:10268800062602500302F350062605C001F006C0D4
:1026980002F04FEF13F01200F5C00FF0F6C010F083
:1026A800000E10BEFF0E116E126E80EC12F0020EBC
:1026B8005E6E000E5D6EE0EC11F01200D70ED56E66
:1026C800F28AF294D08EF28EF28C000E0001F46F32
:1026D800000EF36F1200D3508F0B6009D36EFC0EFF
:1026E800D31612007CEC13F0CA80CA82CA84120086
:0A26F800BD86BD8412000100010040
:107A2200000B02D201B801BA02BA020B02B801D2AB
:107A320001BA02BA02BA021003BA020B020B020B1B
:107A420002D201D201D201B801D201D2010B020B42
:107A5200020B020B020B020B02D201B801BA02BAEC
:107A6200020B02B801D201100310037003A4031623
:107A720004BA02BA024B020B02BA029302BA02BA67
:107A820002BA0200000B0270037003100300004BE5
:107A920002BA024B0270034B02BA024B0200004BC5
:107AA20002BA024B0270031003BA0210030000BABA
:107AB200021003BA021003BA021003BA021003BA88
:107AC200021003BA0210037003A403160470031019
:107AD2000310037003BA024B0200004B02BA024BBE
:107AE2000270034B02BA024B0200004B02BA024B75
:107AF2000270031003BA02100310037003A403A45C
:107B02000300004B02700310037003700370031034
:107B1200037003A4037003A40370031003BA029357
:107B2200020B020B0270031003700370031604A40D
:107B32000370031003BA0210037003A40316047047
:107B4200031003BA02BA02BA02BA020B021003BA53
:107B5200020B020B0270037003700370037003BA0E
:107B620002A4037003BA02160416041604A40370D6
:107B720003BA02BA020B02BA0210031003700370B6
:107B8200031003A4030B027003100370037003704D
:107B92000310037003A4037003A40370031003BA59
:107BA2000293020B020B02700310037003700316A0
:107BB20004A40370031003BA0210037003A4031693
:107BC2000470031003BA02BA02BA02BA020B02101C
:107BD20003BA020B020B027003700370037003708E
:107BE20003BA02A4037003BA02160416041604A40C
:107BF200037003BA02BA020B02BA02100310037036
:107C020003700310031003A40370030B02BA02BA39
:107C1200020000000000005D015D015D0188015D60
:107C220001B801B80188015D015D01880100008889
:107C320001B801D2010B0225012501D201D201D2E4
:107C420001D201D201D201D201D201D201D201D29A
:107C520001D20125012501B801B801B801B801B866
:107C620001B801B801B801B801B801B801B8010BF7
:107C720002000088015D01490100000B024B020B6A
:107C820002B8010000B8010B0270030B0270030B73
:107C92000270030000B8010B0270030B020B02B862
:107CA2000188018801B801D201D201000025015DDD
:107CB2000188015D015D015D0188015D015D015D7C
:107CC20001D2015D01490125010501050105015DA1
:107CD200015D015D015D01B801250125012501B8A4
:107CE2000188018801B801050105010501050105A9
:107CF20001050105010501050105015D015D015D4A
:107D0200015D015D015D010501050105010B025DDA
:107D1200015D01250125010501050105015D010541
:107D220001050105010501050105010501B80188EB
:107D3200015D015D015D0149015D015D01B801D295
:107D4200015D01490105014901050105010501889E
:107D5200015D015D015D015D015D012501250125D9
:107D620001B80188018801B8014901050105010531
:107D720001050105010501050105010501050105D1
:107D8200010501050105015D010501050105010B63
:107D9200025D015D0125012501050105015D010568
:107DA20001050105010501050105010501B80105EE
:107DB200015D015D015D0110100402081010040252
:107DC20008101008100810100810100810101002E7
:107DD2000408101004020810100402081010081001
:107DE20006100610061010060810101002041008E3
:107DF20010081006080410081008100608101010C9
:107E020010101010100810081010100808080804AC
:107E120008101004100810081006080410081008B2
:107E220010060802020208101008101004081006BA
:107E32000410100810080804100810100404081098
:107E42000806081008081002081010081008080494
:107E5200101010101008100808060804081010046A
:107E62000810101010080810041008101004081050
:107E72000604101008100808041008101004040862
:107E82001008060810080810020810100810080848
:107E9200041010101010081008080608040810102A
:107EA2000408101010101008081008080808010132
:107EB2000810010101010402081010040204020268
:107EC20002020808101010101010101010101010DC
:107ED20008081010101010101010101010100208C6
:107EE20010100402040810100410081008100608EC
:107EF20004100810081006080202020810100810E8
:107F020010040810060410100810080804100810C5
:107F120010040408100806081008081002081010BF
:107F2200081008080410101010100810080806089D
:107F3200040810100408101010100808100410088B
:107F42001010040810060410100810080804100885
:107F5200101004040810080608100808100208107F
:107F62001008100808041010101010081008080655
:107F72000804081010040810101010100808100847
:107F820008080801014B024B0293020B020B0293F9
:107F920002ED01000093020000B80100009302000C
:107FA200004B024B0293020B020B029302ED010003
:107FB2000093020000B80100000501050110031042
:107FC200037003700310035D015D0149014901253E
:107FD2000125010501040808040808080808080822
:107FE200080808040808040808080808080404081F
:0E7FF200080808080804080808080808040021
:020000040020DA
:08000000FFFFFFFFFFFFFFFF00
:020000040030CA
:0E000000FF881F00FF8381FF0FC00FE00F403D
:00000001FF
