:020000040000FA
:0400000007EF00F016
:100008007F8209ED00F019EF12F00600F3CF63F0DC
:10001800F4CF64F0F6CF65F0F7CF66F0F8CF67F06D
:10002800F5CF68F0F2A41BEF00F01DEF00F04FEFE2
:1000380002F0F294000ED76EF10ED66E0001E75171
:10004800735C7450800A616EE851800A6158D8A0C8
:1000580030EF00F032EF00F053EF00F07D50715CAC
:100068007250800A616E7E50800A6158D8A03FEFB6
:1000780000F041EF00F053EF00F0000E746E000E38
:10008800736E000E726E000E716E000E786E000EAA
:10009800776E000E766E000E756E53EF00F0774A9D
:1000A800782A754A762A7950775C7850800A616E8A
:1000B8007A50800A6158D8A064EF00F066EF00F02B
:1000C80029EF01F0E751735C7450800A616EE851C2
:1000D800800A6158D8B073EF00F075EF00F029EF8F
:1000E80001F0734A742AD8907334F66E7434F76E3C
:1000F8009B0EF6267A0EF7220900F5CFE9F00A00E2
:10010800F5CFEAF0380E7324F66E7D0E7420F76E84
:100118000800F550696E6A6A69046A10D8A497EFF6
:1001280000F099EF00F09FEF00F0000E7A6E300EAD
:10013800796EF9EF00F0020E69186A10D8A4A7EFDB
:1001480000F0A9EF00F0AFEF00F0000E7A6E180E85
:10015800796EF9EF00F0040E69186A10D8A4B7EFA9
:1001680000F0B9EF00F0BFEF00F0000E7A6E0C0E51
:10017800796EF9EF00F0060E69186A10D8A4C7EF77
:1001880000F0C9EF00F0CFEF00F0000E7A6E090E14
:10019800796EF9EF00F0080E69186A10D8A4D7EF45
:1001A80000F0D9EF00F0DFEF00F0000E7A6E060ED7
:1001B800796EF9EF00F0100E69186A10D8A4E7EF0D
:1001C80000F0E9EF00F0F9EF00F0000E7A6E030E90
:1001D800796EF9EF00F0F9EF00F0F9EF00F0F9EFC0
:1001E80000F0F9EF00F0F9EF00F079C001F07AC003
:1001F80002F0000E046E0A0E036E4FEC12F001C0FE
:1002080079F002C07AF0D8907334F66E7434F76ED1
:100218009B0EF6267A0EF7220900F5500900F51014
:10022800D8A419EF01F01BEF01F01EEF01F0948044
:1002380021EF01F0949021EF01F064EC12F0000E30
:10024800786E000E776E29EF01F07B50755C765062
:10025800800A616E7C50800A6158D8A036EF01F0A0
:1002680038EF01F04FEF02F07D50715C7250800A58
:10027800616E7E50800A6158D8B045EF01F047EFB3
:1002880001F04FEF02F0714A722A71507D5C7E5086
:10029800800A616E7250800A6158D8B056EF01F03A
:1002A80058EF01F05CEF01F04FEF02F04FEF02F072
:1002B800400E016E420E026E0F0E036E000E046EAB
:1002C800D8907134F66E7234F76E0D0EF6267E0EE7
:1002D800F7220900F5CF61F00900F5CF62F061C09F
:1002E80005F062C006F0000E06BEFF0E076E086E2F
:1002F800B9EC0EF001C0BBFF02C0BCFFD89071344E
:10030800F66E7234F76E0D0EF6267E0EF722090091
:10031800F5500900F510D8A494EF01F096EF01F01C
:100328009DEF01F09482000EBC6E000EBB6EC6EF0E
:1003380001F09492400E016E420E026E0F0E036E93
:10034800000E046ED8907134F66E7234F76E0D0E8E
:10035800F6267E0EF7220900F5CF61F00900F5CFE9
:1003680062F061C005F062C006F0000E06BEFF0E26
:10037800076E086EB9EC0EF001C0BBFF02C0BCFFEF
:10038800C6EF01F03F0E7124F66E7C0E7220F76EF8
:100398000800F5506B6E6C6A6B046C10D8A4D7EF2C
:1003A80001F0D9EF01F0DFEF01F0000E7C6E300EA6
:1003B8007B6E39EF02F0020E6B186C10D8A4E7EFD1
:1003C80001F0E9EF01F0EFEF01F0000E7C6E180E7E
:1003D8007B6E39EF02F0040E6B186C10D8A4F7EF9F
:1003E80001F0F9EF01F0FFEF01F0000E7C6E0C0E4A
:1003F8007B6E39EF02F0060E6B186C10D8A407EF6D
:1004080002F009EF02F00FEF02F0000E7C6E090E09
:100418007B6E39EF02F0080E6B186C10D8A417EF3A
:1004280002F019EF02F01FEF02F0000E7C6E060ECC
:100438007B6E39EF02F0100E6B186C10D8A427EF02
:1004480002F029EF02F039EF02F0000E7C6E030E85
:100458007B6E39EF02F039EF02F039EF02F039EF35
:1004680002F039EF02F039EF02F07BC001F07CC0F6
:1004780002F0000E046E0A0E036E4FEC12F001C07B
:100488007BF002C07CF0000E766E000E756E4FEFAA
:1004980002F04FEF02F068C0F5FF67C0F8FF66C0D2
:1004A800F7FF65C0F6FF64C0F4FF63C0F3FF7F92F7
:1004B80011000001BC51800BC56FBC51BC25CB6F2E
:1004C800BBAF69EF02F06BEF02F06EEF02F0CB8189
:1004D8006EEF02F0CB51D8B474EF02F076EF02F071
:1004E8008BEF02F0CB29D8A47CEF02F07EEF02F06C
:1004F80088EF02F0000EB96F000EBA6F000EBB6FE6
:10050800000EBC6F88EF02F0BB8F95EF02F0000E73
:10051800B96F000EBA6F000EBB6F000EBC6F95EF7F
:1005280002F0C051800BC51BC051C025CA6FBFAFB8
:10053800A0EF02F0A2EF02F0A5EF02F0CA81A5EF4A
:1005480002F0CA51D8B4ABEF02F0ADEF02F0C2EF3F
:1005580002F0CA29D8A4B3EF02F0B5EF02F0BFEF5A
:1005680002F0000EBD6F000EBE6F000EBF6F000ED2
:10057800C06FBFEF02F0BF8FCAEF02F0000EBD6F71
:10058800000EBE6F000EBF6F000EC06FCA51D8B408
:10059800D0EF02F0D2EF02F0DCEF02F0CB51D8A49A
:1005A800D8EF02F0DAEF02F0E8EF02F0DCEF02F049
:1005B800000EB96F000EBA6F000EBB6F000EBC6F55
:1005C80094EF04F094EF04F0BF51B903F3CFD0F0E7
:1005D800F4CFD1F0D051C66FC76BC86BC96BD1517E
:1005E800CC6FCD6BCE6BCF6BBE51BA03F3CFD0F0CF
:1005F800F4CFD1F0D051C627000EC723C823C92392
:10060800D151CC27000ECD23CE23CF23BD51BB0320
:10061800F3CFD0F0F4CFD1F0D051C627000EC723C6
:10062800C823C923D151CC27000ECD23CE23CF23F5
:10063800C8C0C9F0C7C0C8F0C6C0C7F0C66BBD51B6
:10064800BA03F3CFD0F0F4CFD1F0D051C627D151AF
:10065800C723000EC823000EC923BE51B903F3CF28
:10066800D0F0F4CFD1F0D051C627D151C723000E16
:10067800C823000EC923C8C0C9F0C7C0C8F0C6C087
:10068800C7F0C66BBD51B903F3CFD0F0F4CFD1F0AA
:10069800D051C627D151C723000EC823000EC92345
:1006A800BF51BA03F3CFD0F0F4CFD1F0D051CC275B
:1006B800D151CD23000ECE23000ECF23BE51BB0354
:1006C800F3CFD0F0F4CFD1F0D051CC27D151CD23F6
:1006D800000ECE23000ECF23BF51BB03F3CFD0F0C3
:1006E800F4CFD1F0D051C16FD151C26FC36BC46B7D
:1006F800C3C0C4F0C2C0C3F0C1C0C2F0C16BC15115
:10070800CC27C251CD23C351CE23C451CF23C6C059
:10071800C1F0C7C0C2F0C8C0C3F0C9C0C4F0190E48
:100728009BEF03F0D890C433C333C233C133E82EF0
:1007380096EF03F0C151CC27C251CD23C351CE232C
:10074800C451CF23C8C0C9F0C7C0C8F0C6C0C7F0DD
:10075800C66BCA51CBC0C1F0C26BC127000EC22301
:10076800820EC125D06FFF0EC221D16FD3EF03F0E7
:10077800D890CC37CD37CE37CF37C9AFC6EF03F0D7
:10078800C8EF03F0C9EF03F0CC81D890C637C7375C
:10079800C837C937D007D8A0D107D3EF03F0CEAFF9
:1007A800D8EF03F0DAEF03F0BCEF03F0DCEF03F06F
:1007B800000ECA6FC9AFE3EF03F0E5EF03F00DEFEA
:1007C80004F0FF0EC615C16FFF0EC715C26FFF0EEE
:1007D800C815C36F7F0EC915C46FC151C211C311AB
:1007E800C411D8B4FAEF03F0FCEF03F000EF04F003
:1007F800010ECA6F0DEF04F0CCA105EF04F007EF6E
:1008080004F00DEF04F0010ECA6F0DEF04F00DEFC8
:1008180004F0CA51D8B413EF04F015EF04F03DEF1B
:1008280004F0010ECC27000ECD23CE23CF23CFA179
:1008380020EF04F022EF04F03DEF04F0CCC0C1F04B
:10084800CDC0C2F0CEC0C3F0CFC0C4F0C435C433ED
:10085800C333C233C133C1C0CCF0C2C0CDF0C3C0B2
:10086800CEF0C4C0CFF0D04BD12B3DEF04F03DEF1C
:1008780004F0D1BF48EF04F0D15108E1D029D8A045
:1008880048EF04F04AEF04F054EF04F0000ECC6F88
:10089800000ECD6F800ECE6F7F0ECF6F88EF04F005
:1008A800D1BF61EF04F0D15106E1D005D8B05FEFB8
:1008B80004F061EF04F06DEF04F0000ECC6F000E51
:1008C800CD6F000ECE6F000ECF6F000EC56F88EF94
:1008D80004F0D0C0CBF0FF0ECC17FF0ECD177F0E63
:1008E800CE17000ECF17CBA17CEF04F07EEF04F0FB
:1008F80081EF04F0CE8F81EF04F0D890CB31CF6F29
:1009080088EF04F088EF04F0C551CF13CCC0B9F0DC
:10091800CDC0BAF0CEC0BBF0CFC0BCF094EF04F0AD
:1009280012003D50800B466E3D503D244C6E3CAE4F
:10093800A0EF04F0A2EF04F0A5EF04F04C80A5EFBF
:1009480004F04C50D8B4ABEF04F0ADEF04F0C2EFB4
:1009580004F04C28D8A4B3EF04F0B5EF04F0BFEFCF
:1009680004F0000E3A6E000E3B6E000E3C6E000E58
:100978003D6EBFEF04F03C8ECCEF04F0000E3A6EF3
:10098800000E3B6E000E3C6E000E3D6ECCEF04F088
:100998004150800B461A415041244B6E40AED7EF70
:1009A80004F0D9EF04F0DCEF04F04B80DCEF04F046
:1009B8004B50D8B4E2EF04F0E4EF04F0F9EF04F0A0
:1009C8004B28D8A4EAEF04F0ECEF04F0F6EF04F0BB
:1009D800000E3E6E000E3F6E000E406E000E416E21
:1009E800F6EF04F0408E01EF05F0000E3E6E000EAB
:1009F8003F6E000E406E000E416E4B50D8B407EFAC
:100A080005F009EF05F013EF05F04C50D8A40FEFEF
:100A180005F011EF05F01FEF05F013EF05F0000EDC
:100A28003A6E000E3B6E000E3C6E000E3D6ECBEF34
:100A380006F0CBEF06F040503A02F3CF51F0F4CF76
:100A480052F05150476E486A496A4A6A52504D6E90
:100A58004E6A4F6A506A3F503B02F3CF51F0F4CFD1
:100A680052F051504726000E482249224A2252503D
:100A78004D26000E4E224F2250223E503C02F3CF0C
:100A880051F0F4CF52F051504726000E4822492227
:100A98004A2252504D26000E4E224F22502249C063
:100AA8004AF048C049F047C048F0476A3E503B0208
:100AB800F3CF51F0F4CF52F051504726525048220C
:100AC800000E4922000E4A223F503A02F3CF51F05D
:100AD800F4CF52F05150472652504822000E492276
:100AE800000E4A2249C04AF048C049F047C048F0C1
:100AF800476A3E503A02F3CF51F0F4CF52F05150CA
:100B0800472652504822000E4922000E4A224050E1
:100B18003B02F3CF51F0F4CF52F051504D265250D2
:100B28004E22000E4F22000E50223F503C02F3CFBF
:100B380051F0F4CF52F051504D2652504E22000E33
:100B48004F22000E502240503C02F3CF51F0F4CF18
:100B580052F05150426E5250436E446A456A44C046
:100B680045F043C044F042C043F0426A42504D262B
:100B780043504E2244504F224550502247C042F025
:100B880048C043F049C044F04AC045F0190ED2EFBE
:100B980005F0D8904532443243324232E82ECDEF48
:100BA80005F042504D2643504E2244504F224550A6
:100BB800502249C04AF048C049F047C048F0476A47
:100BC8004B504CC042F0436A4226000E4322820E2C
:100BD8004224516EFF0E4320526E0AEF06F0D89061
:100BE8004D364E364F3650364AAEFDEF05F0FFEF24
:100BF80005F000EF06F04D80D89047364836493664
:100C08004A365106D8A052060AEF06F04FAE0FEF4B
:100C180006F011EF06F0F3EF05F013EF06F0000E03
:100C28004B6E4AAE1AEF06F01CEF06F044EF06F0E2
:100C3800FF0E4714426EFF0E4814436EFF0E491410
:100C4800446E7F0E4A14456E4250431044104510BE
:100C5800D8B431EF06F033EF06F037EF06F0010EA7
:100C68004B6E44EF06F04DA03CEF06F03EEF06F069
:100C780044EF06F0010E4B6E44EF06F044EF06F029
:100C88004B50D8B44AEF06F04CEF06F074EF06F07C
:100C9800010E4D26000E4E224F22502250A057EF33
:100CA80006F059EF06F074EF06F04DC042F04EC062
:100CB80043F04FC044F050C045F04534453244320B
:100CC8004332423242C04DF043C04EF044C04FF070
:100CD80045C050F0514A522A74EF06F074EF06F0FE
:100CE80052BE7FEF06F0525008E15128D8A07FEF9E
:100CF80006F081EF06F08BEF06F0000E4D6E000E49
:100D08004E6E800E4F6E7F0E506EBFEF06F052BED5
:100D180098EF06F0525006E15104D8B096EF06F06D
:100D280098EF06F0A4EF06F0000E4D6E000E4E6E22
:100D3800000E4F6E000E506E000E466EBFEF06F0AE
:100D480051C04CF0FF0E4D16FF0E4E167F0E4F167B
:100D5800000E50164CA0B3EF06F0B5EF06F0B8EF52
:100D680006F04F8EB8EF06F0D8904C30506EBFEFBB
:100D780006F0BFEF06F0465050124DC03AF04EC094
:100D88003BF04FC03CF050C03DF0CBEF06F01200F6
:100D98000001A351800BB06FA351A325B76FA2AF79
:100DA800D8EF06F0DAEF06F0DDEF06F0B781DDEFF9
:100DB80006F0B751D8B4E3EF06F0E5EF06F0FCEF24
:100DC80006F0B729D8A4EBEF06F0EDEF06F0F7EF41
:100DD80006F0000EA06F000EA16F000EA26F000EAD
:100DE800A36FF7EF06F0A28F000EA36F06EF07F0D0
:100DF800000EA06F000EA16F000EA26F000EA36F71
:100E080006EF07F0A751800BB01BA751A725B86FB5
:100E1800A6AF11EF07F013EF07F016EF07F0B88150
:100E280016EF07F0B851D8B41CEF07F01EEF07F023
:100E380035EF07F0B829D8A424EF07F026EF07F01C
:100E480030EF07F0000EA46F000EA56F000EA66F1E
:100E5800000EA76F30EF07F0A68F000EA76F3FEFC9
:100E680007F0000EA46F000EA56F000EA66F000E0F
:100E7800A76F3FEF07F0A451A511A611A711D8A499
:100E880048EF07F04AEF07F064EF07F0000EA06F95
:100E9800000EA16F000EA26F000EA36F800EA213AA
:100EA8007F0EA313B051A313A0C0A0F0A1C0A1F05E
:100EB800A2C0A2F0A3C0A3F0DCEF08F0DCEF08F0BA
:100EC800B751D8A46AEF07F06CEF07F080EF07F08E
:100ED800000EA06F000EA16F000EA26F000EA36F90
:100EE800A0C0A0F0A1C0A1F0A2C0A2F0A3C0A3F02E
:100EF800DCEF08F0DCEF08F0B851A86FA96BA81F69
:100F0800A91FA84BA92BB751AA6FAB6BA851AA2749
:100F1800A951AB237F0EAA25B16F000EAB21B26F8A
:100F2800A0C0ACF0A1C0ADF0A2C0AEF0A3C0AFF0BD
:100F3800000EA06F000EA16F000EA26F000EA36F2F
:100F4800000EB36F000EB46F000EB56F000EB66FD3
:100F5800000EB86FECEF07F0B851D8B4B6EF07F051
:100F6800B8EF07F0D1EF07F0D890AC37AD37AE3710
:100F7800AF37D890A037A137A237A337B6AFC7EF9E
:100F880007F0C9EF07F0CAEF07F0A081D890B33790
:100F9800B437B537B637D1EF07F0A451AC5DA551DA
:100FA800AD59A651AE59A751AF59D8A0DEEF07F0F9
:100FB800E0EF07F0EBEF07F0B68DA451AC5FA55159
:100FC800AD5BA651AE5BA751AF5BEBEF07F0B82B5B
:100FD800190EB865F2EF07F0F4EF07F0B0EF07F07D
:100FE800F6EF07F0AC51AD11AE11AF11D8B4FFEF69
:100FF80007F001EF08F01DEF08F0B3811DEF08F0CE
:101008001DEF08F0D890A037A137A237A337B6AFA5
:1010180010EF08F012EF08F013EF08F0A081D89055
:10102800B337B437B537B637B107D8A0B2071DEF15
:1010380008F0A2AF22EF08F024EF08F006EF08F05E
:1010480026EF08F0000EB86FB6AF2DEF08F02FEFBF
:1010580008F057EF08F0FF0EB315A86FFF0EB41590
:10106800A96FFF0EB515AA6F7F0EB615AB6FA85105
:10107800A911AA11AB11D8B444EF08F046EF08F053
:101088004AEF08F0010EB86F57EF08F0A0A14FEF34
:1010980008F051EF08F057EF08F0010EB86F57EF5E
:1010A80008F057EF08F0B851D8B45DEF08F05FEFDB
:1010B80008F087EF08F0010EA027000EA123A22355
:1010C800A323A3A16AEF08F06CEF08F087EF08F0FC
:1010D800A0C0A8F0A1C0A9F0A2C0AAF0A3C0ABF01C
:1010E800AB35AB33AA33A933A833A8C0A0F0A9C045
:1010F800A1F0AAC0A2F0ABC0A3F0B14BB22B87EF0E
:1011080008F087EF08F0B2BF92EF08F0B25108E19B
:10111800B129D8A092EF08F094EF08F0A1EF08F0F9
:10112800000EB26FB169000EA06F000EA16F000E25
:10113800A26F000EA36FA1EF08F0B2BFAEEF08F0E8
:10114800B25106E1B105D8B0ACEF08F0AEEF08F047
:10115800BEEF08F0000EB26F000EB16F000EA06F68
:10116800000EA16F000EA26F000EA36F000EB06FED
:10117800BEEF08F0B1C0B7F0B7A1C5EF08F0C7EFF0
:1011880008F0CAEF08F0A28FCDEF08F0A29FCDEFCC
:1011980008F0D890B731A36FB051A313A0C0A0F046
:1011A800A1C0A1F0A2C0A2F0A3C0A3F0DCEF08F098
:1011B80012002450800B316E24502424386E23AE44
:1011C800E8EF08F0EAEF08F0EDEF08F03880EDEF0F
:1011D80008F03850D8B4F3EF08F0F5EF08F00CEF4A
:1011E80009F03828D8A4FBEF08F0FDEF08F007EF66
:1011F80009F0000E216E000E226E000E236E000E06
:10120800246E07EF09F0238E000E246E16EF09F006
:10121800000E216E000E226E000E236E000E246E4C
:1012280016EF09F02850800B311A28502824396EFF
:1012380027AE21EF09F023EF09F026EF09F03980F6
:1012480026EF09F03950D8B42CEF09F02EEF09F049
:1012580045EF09F03928D8A434EF09F036EF09F042
:1012680040EF09F0000E256E000E266E000E276E68
:10127800000E286E40EF09F0278E000E286E4FEF03
:1012880009F0000E256E000E266E000E276E000E69
:10129800286E4FEF09F02550261027102810D8A4E3
:1012A80058EF09F05AEF09F074EF09F0000E216EBB
:1012B800000E226E000E236E000E246E800E231286
:1012C8007F0E24123150241221C021F022C022F0B6
:1012D80023C023F024C024F0ECEF0AF0ECEF0AF06E
:1012E8003850D8A47AEF09F07CEF09F090EF09F0B4
:1012F800000E216E000E226E000E236E000E246E6C
:1013080021C021F022C022F023C023F024C024F001
:10131800ECEF0AF0ECEF0AF03950296E2A6A291E20
:101328002A1E294A2A2A38502B6E2C6A29502B2625
:101338002A502C227F0E2B24326E000E2C20336E66
:1013480021C02DF022C02EF023C02FF024C030F091
:10135800000E216E000E226E000E236E000E246E0B
:10136800000E346E000E356E000E366E000E376EAF
:10137800000E396EFCEF09F03950D8B4C6EF09F009
:10138800C8EF09F0E1EF09F0D8902D362E362F3648
:101398003036D890213622362336243637AED7EF6A
:1013A80009F0D9EF09F0DAEF09F02180D890343646
:1013B800353636363736E1EF09F025502D5C2650A4
:1013C8002E5827502F5828503058D8A0EEEF09F043
:1013D800F0EF09F0FBEF09F0378C25502D5E265011
:1013E8002E5A27502F5A2850305AFBEF09F0392A25
:1013F800190E396402EF0AF004EF0AF0C0EF09F0A1
:1014080006EF0AF02D502E102F103010D8B40FEF21
:101418000AF011EF0AF02DEF0AF034802DEF0AF0F0
:101428002DEF0AF0D890213622362336243637AEEF
:1014380020EF0AF022EF0AF023EF0AF02180D8907B
:1014480034363536363637363206D8A033062DEFE1
:101458000AF023AE32EF0AF034EF0AF016EF0AF082
:1014680036EF0AF0000E396E37AE3DEF0AF03FEF67
:101478000AF067EF0AF0FF0E3414296EFF0E3514D8
:101488002A6EFF0E36142B6E7F0E37142C6E2950E1
:101498002A102B102C10D8B454EF0AF056EF0AF08B
:1014A8005AEF0AF0010E396E67EF0AF021A05FEFDC
:1014B8000AF061EF0AF067EF0AF0010E396E67EF84
:1014C8000AF067EF0AF03950D8B46DEF0AF06FEF01
:1014D8000AF097EF0AF0010E2126000E222223229D
:1014E800242224A07AEF0AF07CEF0AF097EF0AF0A2
:1014F80021C029F022C02AF023C02BF024C02CF0F0
:101508002C342C322B322A32293229C021F02AC01D
:1015180022F02BC023F02CC024F0324A332A97EF54
:101528000AF097EF0AF033BEA2EF0AF0335008E151
:101538003228D8A0A2EF0AF0A4EF0AF0B1EF0AF01F
:10154800000E336E3268000E216E000E226E000E01
:10155800236E000E246EB1EF0AF033BEBEEF0AF020
:10156800335006E13204D8B0BCEF0AF0BEEF0AF0FF
:10157800CEEF0AF0000E336E000E326E000E216EB2
:10158800000E226E000E236E000E246E000E316EC9
:10159800CEEF0AF032C038F038A0D5EF0AF0D7EF16
:1015A8000AF0DAEF0AF0238EDDEF0AF0239EDDEF72
:1015B8000AF0D8903830246E3150241221C021F01E
:1015C80022C022F023C023F024C024F0ECEF0AF05C
:1015D800120000019A6F00019A51D8B4F6EF0AF090
:1015E800F8EF0AF01AEF0BF095BFFFEF0AF0FDEFE6
:1015F8000AF01AEF0BF092C096F093C097F094C0DF
:1016080098F095C099F0961F971F981F991F962BD1
:10161800000E97239823992396C09CF097C09DF0BD
:1016280098C09EF099C09FF024EF0BF092C09CF0F8
:1016380093C09DF094C09EF095C09FF024EF0BF0EE
:101648009251931194119511D8A42DEF0BF02FEF0F
:101658000BF03BEF0BF0000E926F000E936F000E35
:10166800946F000E956FDCEF0BF0DCEF0BF0960E2D
:101678009B6F47EF0BF09B2BD8909F339E339D3386
:101688009C3347EF0BF0000E9C15966F000E9D15CE
:10169800976F000E9E15986FFE0E9F15996F9651C5
:1016A800971198119911D8A45CEF0BF05EEF0BF02D
:1016B8003FEF0BF06EEF0BF06EEF0BF09B2B010E74
:1016C8009C27000E9D239E239F23D8909F339E33F3
:1016D8009D339C33000E9C15966F000E9D15976FD9
:1016E800000E9E15986FFF0E9F15996F96519711D2
:1016F80098119911D8A483EF0BF085EF0BF062EFE6
:101708000BF091EF0BF091EF0BF09B07D8909C3703
:101718009D379E379F3791EF0BF09EBF96EF0BF0EA
:1017280098EF0BF0A2EF0BF0020E9B619EEF0BF00F
:10173800A0EF0BF089EF0BF0A2EF0BF09BB1A7EF36
:101748000BF0A9EF0BF0ACEF0BF09E9FACEF0BF09A
:10175800D8909B339BC096F0976B986B996B96C00B
:1017680099F0986B976B966B96519C1397519D13B4
:1017780098519E1399519F139A51D8B4C6EF0BF004
:10178800C8EF0BF0D2EF0BF095BFCFEF0BF0CDEF1A
:101798000BF0D2EF0BF09F8FD2EF0BF09CC092F0C2
:1017A8009DC093F09EC094F09FC095F0DCEF0BF0C5
:1017B80012001B6E1B50D8B4E4EF0BF0E6EF0BF0F1
:1017C80008EF0CF016BEEDEF0BF0EBEF0BF008EFA7
:1017D8000CF013C017F014C018F015C019F016C09B
:1017E8001AF0171E181E191E1A1E172A000E182284
:1017F80019221A2217C01DF018C01EF019C01FF0B8
:101808001AC020F012EF0CF013C01DF014C01EF027
:1018180015C01FF016C020F012EF0CF01350141072
:1018280015101610D8A41BEF0CF01DEF0CF029EFC3
:101838000CF0000E136E000E146E000E156E000EE6
:10184800166ECAEF0CF0CAEF0CF0960E1C6E35EF50
:101858000CF01C2AD89020321F321E321D3235EF70
:101868000CF0000E1D14176E000E1E14186E000EDC
:101878001F14196EFE0E20141A6E17501810191026
:101888001A10D8A44AEF0CF04CEF0CF02DEF0CF026
:101898005CEF0CF05CEF0CF01C2A010E1D26000E0C
:1018A8001E221F222022D89020321F321E321D32C3
:1018B800000E1D14176E000E1E14186E000E1F1455
:1018C800196EFF0E20141A6E1750181019101A10DE
:1018D800D8A471EF0CF073EF0CF050EF0CF07FEF21
:1018E8000CF07FEF0CF01C06D8901D361E361F3604
:1018F80020367FEF0CF01FBE84EF0CF086EF0CF063
:1019080090EF0CF0020E1C608CEF0CF08EEF0CF0D8
:1019180077EF0CF090EF0CF01CB095EF0CF097EF10
:101928000CF09AEF0CF01F9E9AEF0CF0D8901C3236
:101938001CC017F0186A196A1A6A17C01AF0196ACF
:10194800186A176A17501D1218501E1219501F12C4
:101958001A5020121B50D8B4B4EF0CF0B6EF0CF0AC
:10196800C0EF0CF016BEBDEF0CF0BBEF0CF0C0EFF3
:101978000CF0208EC0EF0CF01DC013F01EC014F048
:101988001FC015F020C016F0CAEF0CF012000001BD
:10199800D435D535DB6FDB51D8A4D5EF0CF0D7EFB4
:1019A8000CF0E3EF0CF0000ED26F000ED36F000EB8
:1019B800D46F000ED56F74EF0DF074EF0DF0D2C038
:1019C800D6F0D3C0D7F0D4C0D8F0D5C0D9F0200E07
:1019D800F3EF0CF0D890D933D833D733D633E82E79
:1019E800EEEF0CF0D651DA6FD48FFF0ED217FF0E40
:1019F800D317FF0ED417000ED517960EDB5FDBBF8B
:101A08000AEF0DF008EF0DF02EEF0DF0DB51800A14
:101A1800970FD8B012EF0DF014EF0DF022EF0DF084
:101A2800000ED26F000ED36F000ED46F000ED56F6C
:101A380074EF0DF074EF0DF022EF0DF0D890D53360
:101A4800D433D333D233DB3F22EF0DF058EF0DF010
:101A580058EF0DF01F0EDB6534EF0DF036EF0DF08B
:101A68004CEF0DF0000ED26F000ED36F000ED46F46
:101A7800000ED56F74EF0DF074EF0DF04CEF0DF014
:101A8800D890D237D337D437D537DB074CEF0DF0A2
:101A9800DB51D8A452EF0DF054EF0DF044EF0DF0E8
:101AA80058EF0DF058EF0DF0DA51D8B45EEF0DF0A5
:101AB80060EF0DF06AEF0DF0D51FD41FD31FD26D64
:101AC800000ED323D423D5236AEF0DF0D2C0D2F071
:101AD800D3C0D3F0D4C0D4F0D5C0D5F074EF0DF096
:101AE8001200553456345C6E5C50D8A47EEF0DF06D
:101AF80080EF0DF08CEF0DF0000E536E000E546E5B
:101B0800000E556E000E566E1DEF0EF01DEF0EF016
:101B180053C057F054C058F055C059F056C05AF049
:101B2800200E9CEF0DF0D8905A3259325832573265
:101B3800E82E97EF0DF057505B6E558EFF0E53163B
:101B4800FF0E5416FF0E5516000E5616960E5C5EC6
:101B58005CBEB3EF0DF0B1EF0DF0D7EF0DF05C50B8
:101B6800800A970FD8B0BBEF0DF0BDEF0DF0CBEFAB
:101B78000DF0000E536E000E546E000E556E000EE2
:101B8800566E1DEF0EF01DEF0EF0CBEF0DF0D89056
:101B980056325532543253325C3ECBEF0DF001EFE2
:101BA8000EF001EF0EF01F0E5C64DDEF0DF0DFEFBD
:101BB8000DF0F5EF0DF0000E536E000E546E000E92
:101BC800556E000E566E1DEF0EF01DEF0EF0F5EF80
:101BD8000DF0D89053365436553656365C06F5EF28
:101BE8000DF05C50D8A4FBEF0DF0FDEF0DF0EDEF1C
:101BF8000DF001EF0EF001EF0EF05B50D8B407EFD7
:101C08000EF009EF0EF013EF0EF0561E551E541E7F
:101C1800536C000E54225522562213EF0EF053C077
:101C280053F054C054F055C055F056C056F01DEF4F
:101C38000EF01200000E0001896F87BF28EF0EF02A
:101C480026EF0EF034EF0EF0871F861F851F846D78
:101C5800000E852386238723010E896F34EF0EF04B
:101C680083BF3BEF0EF039EF0EF047EF0EF0831F06
:101C7800821F811F806D000E812382238323010E22
:101C8800891B47EF0EF0000E8A6F000E8B6F000E57
:101C98008C6F000E8D6F8451851186118711D8B411
:101CA80058EF0EF05AEF0EF09CEF0EF0010E886F11
:101CB80066EF0EF0D8908437853786378737882BBC
:101CC80066EF0EF087AF6BEF0EF06DEF0EF05EEF84
:101CD8000EF071EF0EF071EF0EF0D8908A378B3757
:101CE8008C378D378451805D855181598651825951
:101CF80087518359D8A083EF0EF085EF0EF090EF4F
:101D08000EF08451805F8551815B8651825B8751DB
:101D1800835B8A8190EF0EF0D890873386338533C2
:101D28008433882F71EF0EF09CEF0EF09CEF0EF0CD
:101D38008951D8B4A2EF0EF0A4EF0EF0AEEF0EF07A
:101D48008D1F8C1F8B1F8A6D000E8B238C238D2378
:101D5800AEEF0EF08AC080F08BC081F08CC082F0AC
:101D68008DC083F0B8EF0EF01200000E0A6E08BEA8
:101D7800C2EF0EF0C0EF0EF0CEEF0EF0081E071EF9
:101D8800061E056C000E062207220822010E0A6EA6
:101D9800CEEF0EF004BED5EF0EF0D3EF0EF0E1EF6C
:101DA8000EF0041E031E021E016C000E0222032206
:101DB8000422010E0A1AE1EF0EF0000E0B6E000E5F
:101DC8000C6E000E0D6E000E0E6E055006100710FC
:101DD8000810D8B4F2EF0EF0F4EF0EF036EF0FF073
:101DE800010E096E00EF0FF0D8900536063607365B
:101DF8000836092A00EF0FF008AE05EF0FF007EFDD
:101E08000FF0F8EF0EF00BEF0FF00BEF0FF0D8908C
:101E18000B360C360D360E360550015C065002584E
:101E28000750035808500458D8A01DEF0FF01FEFB3
:101E38000FF02AEF0FF00550015E0650025A0750C6
:101E4800035A0850045A0B802AEF0FF0D890083232
:101E5800073206320532092E0BEF0FF036EF0FF07E
:101E680036EF0FF00A50D8B43CEF0FF03EEF0FF00A
:101E780048EF0FF00E1E0D1E0C1E0B6C000E0C22F0
:101E88000D220E2248EF0FF00BC001F00CC002F03B
:101E98000DC003F00EC004F052EF0FF01200000165
:101EA80086058711D8A45BEF0FF05DEF0FF063EFA5
:101EB8000FF0000E8B6F300E8A6FC3EF0FF0020E1B
:101EC80086198711D8A46BEF0FF06DEF0FF073EF41
:101ED8000FF0000E8B6F180E8A6FC3EF0FF0040E11
:101EE80086198711D8A47BEF0FF07DEF0FF083EFF1
:101EF8000FF0000E8B6F0C0E8A6FC3EF0FF0060EFB
:101F080086198711D8A48BEF0FF08DEF0FF093EFA0
:101F18000FF0000E8B6F090E8A6FC3EF0FF0080EDB
:101F280086198711D8A49BEF0FF09DEF0FF0A3EF50
:101F38000FF0000E8B6F060E8A6FC3EF0FF0100EB6
:101F480086198711D8A4ABEF0FF0ADEF0FF0B3EF00
:101F58000FF0000E8B6F030E8A6FC3EF0FF0000EA9
:101F68008B6F010E8A6FC3EF0FF0C3EF0FF0C3EF53
:101F78000FF0C3EF0FF0C3EF0FF0C3EF0FF08AC0FD
:101F880080F08BC081F0000E836F0A0E826F39ECEF
:101F980012F080C08AF081C08BF00001885189114D
:101FA800D8B4D9EF0FF0DBEF0FF0E1EF0FF08AC0F4
:101FB80079F08BC07AF0E5EF0FF08AC07BF08BC028
:101FC8007CF000F01200040E0001DD5DD8B0EFEFE8
:101FD8000FF0F1EF0FF056EF10F0CAEC11F000011E
:101FE8008EC092F08FC093F0000E93BFFF0E946FD7
:101FF800956F010EEDEC0AF092C0BDF093C0BEF0F3
:1020080094C0BFF095C0C0F0000E0001A46FC00ED0
:10201800A56F7F0EA66F440EA76FDCC092F0DDC0DF
:1020280093F0946B956B000EEDEC0AF092C0A0F063
:1020380093C0A1F094C0A2F095C0A3F0CCEC06F038
:10204800A0C0B9F0A1C0BAF0A2C0BBF0A3C0BCF058
:102058005DEC02F0B9C0D2F0BAC0D3F0BBC0D4F086
:10206800BCC0D5F0CBEC0CF0D2C0DCF0D3C0DDF0B6
:10207800BD9A0001DCB143EF10F046EF10F0BD88C7
:1020880047EF10F0BD98DCC0DEF0DDC0DFF00001E6
:10209800D890DF33DE33D890DF33DE33DE51BE6EC7
:1020A80056EF10F01200040E5E5CD8B05EEF10F030
:1020B80060EF10F0C1EF10F0F2EC11F00FC013F068
:1020C80010C014F0000E14BEFF0E156E166E010E31
:1020D800DDEC0BF013C03EF014C03FF015C040F02B
:1020E80016C041F0000E256EC00E266E7F0E276EBC
:1020F800440E286E5DC013F05EC014F0156A166AAF
:10210800000EDDEC0BF013C021F014C022F015C056
:1021180023F016C024F0DDEC08F021C03AF022C00C
:102128003BF023C03CF024C03DF095EC04F03AC0ED
:1021380053F03BC054F03CC055F03DC056F075EC30
:102148000DF053C05DF054C05EF0BD9A5DB0AFEFC6
:1021580010F0B2EF10F0BD88B3EF10F0BD985DC07D
:102168005FF05EC060F0D89060325F32D890603225
:102178005F325F50BE6EC1EF10F012009492020EF3
:10218800BA6EA190000EB36E000EB26EC00EB16EA4
:10219800030EBC6EE80EBB6EB180000E0001E86F46
:1021A800D20EE76F000E746E000E736E000E7E6E18
:1021B800F90E7D6E000E726E000E716E000E876F46
:1021C800100E866F000E896F000E886F53EC0FF0AB
:1021D800000E0001876F100E866F000E896F010ECA
:1021E800886F53EC0FF082EC12F076EC12F09494B6
:1021F800000E8B6EF40E00018E6F010E8F6F000EB5
:10220800906F000E916F62EC11F0000E0001DD6F0F
:10221800000EDC6FE7EC0FF089EC12F012009580ED
:102228008390C2EC10F0000E0001E66F010EE56F1E
:102238001EEF11F083B023EF11F025EF11F035EF09
:1022480011F0000E0001E66F000EE56F9480948295
:10225800F28A000EDD6F000EDC6FE7EC0FF035EF51
:1022680011F00001E551E611D8A43DEF11F03FEF60
:1022780011F04EEF11F083A044EF11F046EF11F08A
:102288004EEF11F0000EE66F010EE56FC2EC10F094
:102298004EEF11F0A1A053EF11F055EF11F01EEF22
:1022A80011F0A190000EB36E000EB26E1EEF11F089
:1022B8001EEF11F01EEF11F007EF00F0000E000105
:1022C800806F090E816F3D0E826F000E836F8EC086
:1022D80092F08FC093F090C094F091C095F0020EE8
:1022E800D8909237933794379537E82E74EF11F0DA
:1022F800040ED8909237933794379537E82E7DEFB0
:1023080011F092C084F093C085F094C086F095C017
:1023180087F01EEC0EF000018005CB6E8EC0E9F050
:102328008FC0EAF01200000E016E090E026E3D0E1B
:10233800036E000E046E0FC013F010C014F011C02D
:1023480015F012C016F0020ED89013361436153652
:102358001636E82EA8EF11F0040ED890133614366E
:1023680015361636E82EB1EF11F013C005F014C07B
:1023780006F015C007F016C008F0B9EC0EF001041D
:10238800CB6E0FC0E9F010C0EAF01200000E000199
:10239800806F090E816F3D0E826F000E836FE9C05A
:1023A80090F0EAC091F0903B913BF00E911790515C
:1023B8000F0B9113F00E901790C084F091C085F028
:1023C800000E85BFFF0E866F876F1EEC0EF080C073
:1023D8008EF081C08FF0F1EF11F01200000E016E47
:1023E800090E026E3D0E036E000E046EE9C011F078
:1023F800EAC012F0113A123AF00E121611500F0BF1
:102408001212F00E111611C005F012C006F0000EDF
:1024180006BEFF0E076E086EB9EC0EF001C00FF095
:1024280002C010F018EF12F01200240EF66E250EFE
:10243800F76E000EF86E00EE79F010EE04F0090069
:10244800F5CFEEFFE550E150FAE10001EA6BE96BE8
:1024580000EE6DF00C0EEE6AE806FDE17F907F92CB
:10246800000EF86E000113EF11F000018051820395
:10247800F3CF84F0F4CF85F080518303F3508527A0
:1024880081518203F350852784C080F085C081F094
:102498004EEF12F0120001500302F3CF05F0F4CF13
:1024A80006F001500402F350062602500302F350CE
:1024B800062605C001F006C002F063EF12F0120014
:1024C800E9C00FF0EAC010F0000E10BEFF0E116E4A
:1024D800126E97EC11F0020E5E6E000E5D6E57ECF8
:1024E80010F01200D70ED56EF28AF294D08EF28ECA
:1024F800F28C000E786E000E776E1200D3508F0BA0
:102508006009D36EFC0ED31612008FEC12F0CA804D
:10251800CA82CA841200BD86BD841200010001006F
:107A9A0000000000005D015D015D0188015D01B823
:107AAA0001B80188015D015D01880100008801B803
:107ABA0001D2010B0225012501D201D201D201D244
:107ACA0001D201D201D201D201D201D201D201D214
:107ADA000125012501B801B801B801B801B801B8FA
:107AEA0001B801B801B801B801B801B8010B020028
:107AFA000088015D01490100000B024B020B02B82C
:107B0A00010000B8010B0270030B0270030B027034
:107B1A00030000B8010B0270030B020B02B80188C4
:107B2A00018801B801D201D201000025015D018856
:107B3A00015D015D015D0188015D015D015D01D2AB
:107B4A00015D01490125010501050105015D015D8F
:107B5A00015D015D01B801250125012501B80188F2
:107B6A00018801B8010501050105010501050105A5
:107B7A000105010501050105015D015D015D015D6B
:107B8A00015D015D010501050105010B025D015D54
:107B9A0001250125010501050105015D0105010513
:107BAA000105010501050105010501B80188015D0D
:107BBA00015D015D0149015D015D01B801D2015D0F
:107BCA000149010501490105010501050188015D18
:107BDA00015D015D015D015D01250125012501B8F8
:107BEA000188018801B8014901050105010501055E
:107BFA00010501050105010501050105010501054B
:107C0A0001050105015D010501050105010B025D83
:107C1A00015D0125012501050105015D010501053A
:107C2A000105010501050105010501B80105015D0F
:107C3A00015D015D01101004020810100402081011
:107C4A00100810081010081010081010100204086C
:107C5A001010040208101004020810100810061070
:107C6A00061006101006081010100204100810085A
:107C7A00100608041008100810060810101010103A
:107C8A00101010081008101010080808080408102E
:107C9A00100410081008100608041008100810062E
:107CAA000802020208101008101004081006041036
:107CBA001008100808041008101004040810080618
:107CCA0008100808100208101008100808041010FC
:107CDA0010101008100808060804081010040810EC
:107CEA0010101008081004100810100408100604D8
:107CFA0010100810080804100810100404081008CE
:107D0A0006081008081002081010081008080410C5
:107D1A0010101010081008080608040810100408AB
:107D2A00101010101008081008080808010108109F
:107D3A0001010101040208101004020402020202F5
:107D4A000808101010101010101010101010080849
:107D5A00101010101010101010101010020810102F
:107D6A000402040810100410081008100608041071
:107D7A000810081006080202020810100810100461
:107D8A00081006041010081008080410081010043F
:107D9A000408100806081008081002081010081035
:107DAA000808041010101010081008080608040823
:107DBA0010100408101010100808100410081010F1
:107DCA0004081006041010081008080410081010FF
:107DDA000404081008060810080810020810100801
:107DEA0010080804101010101008100808060804DB
:107DFA0008101004081010101010080810080808BD
:107E0A000801010B02D201B801BA02BA020B02B888
:107E1A0001D201BA02BA02BA021003BA020B020B69
:107E2A00020B02D201D201D201B801D201D2010B56
:107E3A00020B020B020B020B020B02D201B801BAAF
:107E4A0002BA020B02B801D201100310037003A494
:107E5A00031604BA02BA024B020B02BA029302BA1E
:107E6A0002BA02BA0200000B027003700310030088
:107E7A00004B02BA024B0270034B02BA024B0200D9
:107E8A00004B02BA024B0270031003BA021003003D
:107E9A0000BA021003BA021003BA021003BA02109F
:107EAA0003BA021003BA0210037003A40316047083
:107EBA0003100310037003BA024B0200004B02BA0C
:107ECA00024B0270034B02BA024B0200004B02BA89
:107EDA00024B0270031003BA02100310037003A4CA
:107EEA0003A40300004B02700310037003700370B5
:107EFA000310037003A4037003A40370031003BAEE
:107F0A000293020B020B0270031003700370031634
:107F1A0004A40370031003BA0210037003A4031627
:107F2A000470031003BA02BA02BA02BA020B0210B0
:107F3A0003BA020B020B0270037003700370037022
:107F4A0003BA02A4037003BA02160416041604A4A0
:107F5A00037003BA02BA020B02BA021003100370CA
:107F6A000370031003A4030B027003100370037061
:107F7A0003700310037003A4037003A403700310B7
:107F8A0003BA0293020B020B027003100370037010
:107F9A00031604A40370031003BA0210037003A4A7
:107FAA0003160470031003BA02BA02BA02BA020B29
:107FBA00021003BA020B020B027003700370037003
:107FCA00037003BA02A4037003BA02160416041655
:107FDA0004A4037003BA02BA020B02BA0210031015
:107FEA00037003700310031003A40370030B02BA97
:067FFA0002BA02000000C3
:020000040020DA
:08000000FFFFFFFFFFFFFFFF00
:020000040030CA
:0E000000FF881F00FF8381FF0FC00FE00F403D
:00000001FF
