:020000040000FA
:0400000007EF00F016
:100008007B8203ED0CF0ABEF10F00001BC51800BCC
:10001800C56FBC51BC25CB6FBBAF15EF00F017EF18
:1000280000F01AEF00F0CB811AEF00F0CB51D8B4F2
:1000380020EF00F022EF00F037EF00F0CB29D8A432
:1000480028EF00F02AEF00F034EF00F0000EB96F4F
:10005800000EBA6F000EBB6F000EBC6F34EF00F0DD
:10006800BB8F41EF00F0000EB96F000EBA6F000EA3
:10007800BB6F000EBC6F41EF00F0C051800BC51B79
:10008800C051C025CA6FBFAF4CEF00F04EEF00F073
:1000980051EF00F0CA8151EF00F0CA51D8B457EFC0
:1000A80000F059EF00F06EEF00F0CA29D8A45FEF16
:1000B80000F061EF00F06BEF00F0000EBD6F000E76
:1000C800BE6F000EBF6F000EC06F6BEF00F0BF8FEA
:1000D80076EF00F0000EBD6F000EBE6F000EBF6F12
:1000E800000EC06FCA51D8B47CEF00F07EEF00F06C
:1000F80088EF00F0CB51D8A484EF00F086EF00F031
:1001080094EF00F088EF00F0000EB96F000EBA6FA0
:10011800000EBB6F000EBC6F40EF02F040EF02F024
:10012800BF51B903F3CFD0F0F4CFD1F0D051C66F9F
:10013800C76BC86BC96BD151CC6FCD6BCE6BCF6B16
:10014800BE51BA03F3CFD0F0F4CFD1F0D051C627C7
:10015800000EC723C823C923D151CC27000ECD23B5
:10016800CE23CF23BD51BB03F3CFD0F0F4CFD1F0D2
:10017800D051C627000EC723C823C923D151CC2785
:10018800000ECD23CE23CF23C8C0C9F0C7C0C8F006
:10019800C6C0C7F0C66BBD51BA03F3CFD0F0F4CFD9
:1001A800D1F0D051C627D151C723000EC823000E65
:1001B800C923BE51B903F3CFD0F0F4CFD1F0D05159
:1001C800C627D151C723000EC823000EC923C8C0B3
:1001D800C9F0C7C0C8F0C6C0C7F0C66BBD51B903E7
:1001E800F3CFD0F0F4CFD1F0D051C627D151C723E7
:1001F800000EC823000EC923BF51BA03F3CFD0F0B5
:10020800F4CFD1F0D051CC27D151CD23000ECE233D
:10021800000ECF23BE51BB03F3CFD0F0F4CFD1F003
:10022800D051CC27D151CD23000ECE23000ECF23A1
:10023800BF51BB03F3CFD0F0F4CFD1F0D051C16F91
:10024800D151C26FC36BC46BC3C0C4F0C2C0C3F08A
:10025800C1C0C2F0C16BC151CC27C251CD23C3511B
:10026800CE23C451CF23C6C0C1F0C7C0C2F0C8C096
:10027800C3F0C9C0C4F0190E47EF01F0D890C433D9
:10028800C333C233C133E82E42EF01F0C151CC274A
:10029800C251CD23C351CE23C451CF23C8C0C9F006
:1002A800C7C0C8F0C6C0C7F0C66BCA51CBC0C1F042
:1002B800C26BC127000EC223820EC125D06FFF0E6C
:1002C800C221D16F7FEF01F0D890CC37CD37CE3730
:1002D800CF37C9AF72EF01F074EF01F075EF01F09D
:1002E800CC81D890C637C737C837C937D007D8A008
:1002F800D1077FEF01F0CEAF84EF01F086EF01F078
:1003080068EF01F088EF01F0000ECA6FC9AF8FEFF8
:1003180001F091EF01F0B9EF01F0FF0EC615C16FC2
:10032800FF0EC715C26FFF0EC815C36F7F0EC91524
:10033800C46FC151C211C311C411D8B4A6EF01F0E2
:10034800A8EF01F0ACEF01F0010ECA6FB9EF01F0B0
:10035800CCA1B1EF01F0B3EF01F0B9EF01F0010E5C
:10036800CA6FB9EF01F0B9EF01F0CA51D8B4BFEFC5
:1003780001F0C1EF01F0E9EF01F0010ECC27000E0A
:10038800CD23CE23CF23CFA1CCEF01F0CEEF01F0C8
:10039800E9EF01F0CCC0C1F0CDC0C2F0CEC0C3F0CF
:1003A800CFC0C4F0C435C433C333C233C133C1C0B2
:1003B800CCF0C2C0CDF0C3C0CEF0C4C0CFF0D04B9B
:1003C800D12BE9EF01F0E9EF01F0D1BFF4EF01F033
:1003D800D15108E1D029D8A0F4EF01F0F6EF01F0EF
:1003E80000EF02F0000ECC6F000ECD6F800ECE6FC6
:1003F8007F0ECF6F34EF02F0D1BF0DEF02F0D15175
:1004080006E1D005D8B00BEF02F00DEF02F019EFBE
:1004180002F0000ECC6F000ECD6F000ECE6F000EF6
:10042800CF6F000EC56F34EF02F0D0C0CBF0FF0ED7
:10043800CC17FF0ECD177F0ECE17000ECF17CBA10E
:1004480028EF02F02AEF02F02DEF02F0CE8F2DEF09
:1004580002F0D890CB31CF6F34EF02F034EF02F0D6
:10046800C551CF13CCC0B9F0CDC0BAF0CEC0BBF0E7
:10047800CFC0BCF040EF02F012003D50800B466E3A
:100488003D503D244C6E3CAE4CEF02F04EEF02F076
:1004980051EF02F04C8051EF02F04C50D8B457EFB6
:1004A80002F059EF02F06EEF02F04C28D8A45FEF8B
:1004B80002F061EF02F06BEF02F0000E3A6E000EF0
:1004C8003B6E000E3C6E000E3D6E6BEF02F03C8EF4
:1004D80078EF02F0000E3A6E000E3B6E000E3C6E96
:1004E800000E3D6E78EF02F04150800B461A4150E5
:1004F80041244B6E40AE83EF02F085EF02F088EFA7
:1005080002F04B8088EF02F04B50D8B48EEF02F027
:1005180090EF02F0A5EF02F04B28D8A496EF02F076
:1005280098EF02F0A2EF02F0000E3E6E000E3F6E52
:10053800000E406E000E416EA2EF02F0408EADEF4D
:1005480002F0000E3E6E000E3F6E000E406E000E72
:10055800416E4B50D8B4B3EF02F0B5EF02F0BFEFE5
:1005680002F04C50D8A4BBEF02F0BDEF02F0CBEF85
:1005780002F0BFEF02F0000E3A6E000E3B6E000E66
:100588003C6E000E3D6E77EF04F077EF04F04050BC
:100598003A02F3CF51F0F4CF52F05150476E486A07
:1005A800496A4A6A52504D6E4E6A4F6A506A3F50C5
:1005B8003B02F3CF51F0F4CF52F051504726000ED2
:1005C800482249224A2252504D26000E4E224F22DE
:1005D80050223E503C02F3CF51F0F4CF52F051502C
:1005E8004726000E482249224A2252504D26000E24
:1005F8004E224F22502249C04AF048C049F047C015
:1006080048F0476A3E503B02F3CF51F0F4CF52F026
:100618005150472652504822000E4922000E4A22C5
:100628003F503A02F3CF51F0F4CF52F051504726E1
:1006380052504822000E4922000E4A2249C04AF070
:1006480048C049F047C048F0476A3E503A02F3CFE5
:1006580051F0F4CF52F05150472652504822000E24
:100668004922000E4A2240503B02F3CF51F0F4CF0A
:1006780052F051504D2652504E22000E4F22000E7D
:1006880050223F503C02F3CF51F0F4CF52F051507A
:100698004D2652504E22000E4F22000E502240503E
:1006A8003C02F3CF51F0F4CF52F05150426E525009
:1006B800436E446A456A44C045F043C044F042C0B2
:1006C80043F0426A42504D2643504E2244504F2236
:1006D8004550502247C042F048C043F049C044F05A
:1006E8004AC045F0190E7EEF03F0D89045324432E7
:1006F80043324232E82E79EF03F042504D26435000
:100708004E2244504F224550502249C04AF048C01A
:1007180049F047C048F0476A4B504CC042F0436A22
:100728004226000E4322820E4224516EFF0E4320C1
:10073800526EB6EF03F0D8904D364E364F365036DF
:100748004AAEA9EF03F0ABEF03F0ACEF03F04D8036
:10075800D8904736483649364A365106D8A0520608
:10076800B6EF03F04FAEBBEF03F0BDEF03F09FEF22
:1007780003F0BFEF03F0000E4B6E4AAEC6EF03F076
:10078800C8EF03F0F0EF03F0FF0E4714426EFF0EC0
:100798004814436EFF0E4914446E7F0E4A14456E8A
:1007A8004250431044104510D8B4DDEF03F0DFEF9A
:1007B80003F0E3EF03F0010E4B6EF0EF03F04DA0F2
:1007C800E8EF03F0EAEF03F0F0EF03F0010E4B6EF1
:1007D800F0EF03F0F0EF03F04B50D8B4F6EF03F06E
:1007E800F8EF03F020EF04F0010E4D26000E4E2224
:1007F8004F22502250A003EF04F005EF04F020EF41
:1008080004F04DC042F04EC043F04FC044F050C019
:1008180045F04534453244324332423242C04DF00D
:1008280043C04EF044C04FF045C050F0514A522AE0
:1008380020EF04F020EF04F052BE2BEF04F05250EA
:1008480008E15128D8A02BEF04F02DEF04F037EF82
:1008580004F0000E4D6E000E4E6E800E4F6E7F0E31
:10086800506E6BEF04F052BE44EF04F0525006E1B4
:100878005104D8B042EF04F044EF04F050EF04F014
:10088800000E4D6E000E4E6E000E4F6E000E506E36
:10089800000E466E6BEF04F051C04CF0FF0E4D1683
:1008A800FF0E4E167F0E4F16000E50164CA05FEF2F
:1008B80004F061EF04F064EF04F04F8E64EF04F08D
:1008C800D8904C30506E6BEF04F06BEF04F046504C
:1008D80050124DC03AF04EC03BF04FC03CF050C0F3
:1008E8003DF077EF04F012000001A351800BB06FC8
:1008F800A351A325B76FA2AF84EF04F086EF04F0ED
:1009080089EF04F0B78189EF04F0B751D8B48FEFBD
:1009180004F091EF04F0A8EF04F0B729D8A497EFFA
:1009280004F099EF04F0A3EF04F0000EA06F000E9E
:10093800A16F000EA26F000EA36FA3EF04F0A28FA9
:10094800000EA36FB2EF04F0000EA06F000EA16FAF
:10095800000EA26F000EA36FB2EF04F0A751800B38
:10096800B01BA751A725B86FA6AFBDEF04F0BFEF26
:1009780004F0C2EF04F0B881C2EF04F0B851D8B463
:10098800C8EF04F0CAEF04F0E1EF04F0B829D8A4E6
:10099800D0EF04F0D2EF04F0DCEF04F0000EA46F07
:1009A800000EA56F000EA66F000EA76FDCEF04F017
:1009B800A68F000EA76FEBEF04F0000EA46F000ED9
:1009C800A56F000EA66F000EA76FEBEF04F0A45101
:1009D800A511A611A711D8A4F4EF04F0F6EF04F0BE
:1009E80010EF05F0000EA06F000EA16F000EA26FB1
:1009F800000EA36F800EA2137F0EA313B051A31392
:100A0800A0C0A0F0A1C0A1F0A2C0A2F0A3C0A3F012
:100A180088EF06F088EF06F0B751D8A416EF05F076
:100A280018EF05F02CEF05F0000EA06F000EA16F77
:100A3800000EA26F000EA36FA0C0A0F0A1C0A1F08D
:100A4800A2C0A2F0A3C0A3F088EF06F088EF06F0DA
:100A5800B851A86FA96BA81FA91FA84BA92BB751FC
:100A6800AA6FAB6BA851AA27A951AB237F0EAA2561
:100A7800B16F000EAB21B26FA0C0ACF0A1C0ADF059
:100A8800A2C0AEF0A3C0AFF0000EA06F000EA16F21
:100A9800000EA26F000EA36F000EB36F000EB46FAE
:100AA800000EB56F000EB66F000EB86F98EF05F028
:100AB800B851D8B462EF05F064EF05F07DEF05F0AA
:100AC800D890AC37AD37AE37AF37D890A037A1370D
:100AD800A237A337B6AF73EF05F075EF05F076EFE1
:100AE80005F0A081D890B337B437B537B6377DEF66
:100AF80005F0A451AC5DA551AD59A651AE59A75109
:100B0800AF59D8A08AEF05F08CEF05F097EF05F004
:100B1800B68DA451AC5FA551AD5BA651AE5BA75194
:100B2800AF5B97EF05F0B82B190EB8659EEF05F08F
:100B3800A0EF05F05CEF05F0A2EF05F0AC51AD11A8
:100B4800AE11AF11D8B4ABEF05F0ADEF05F0C9EFBA
:100B580005F0B381C9EF05F0C9EF05F0D890A037CB
:100B6800A137A237A337B6AFBCEF05F0BEEF05F04B
:100B7800BFEF05F0A081D890B337B437B537B63793
:100B8800B107D8A0B207C9EF05F0A2AFCEEF05F0C4
:100B9800D0EF05F0B2EF05F0D2EF05F0000EB86F18
:100BA800B6AFD9EF05F0DBEF05F003EF06F0FF0E67
:100BB800B315A86FFF0EB415A96FFF0EB515AA6F70
:100BC8007F0EB615AB6FA851A911AA11AB11D8B4F5
:100BD800F0EF05F0F2EF05F0F6EF05F0010EB86F53
:100BE80003EF06F0A0A1FBEF05F0FDEF05F003EF22
:100BF80006F0010EB86F03EF06F003EF06F0B851E8
:100C0800D8B409EF06F00BEF06F033EF06F0010E4B
:100C1800A027000EA123A223A323A3A116EF06F069
:100C280018EF06F033EF06F0A0C0A8F0A1C0A9F0B5
:100C3800A2C0AAF0A3C0ABF0AB35AB33AA33A9333B
:100C4800A833A8C0A0F0A9C0A1F0AAC0A2F0ABC068
:100C5800A3F0B14BB22B33EF06F033EF06F0B2BF7F
:100C68003EEF06F0B25108E1B129D8A03EEF06F0F8
:100C780040EF06F04DEF06F0000EB26FB169000EBE
:100C8800A06F000EA16F000EA26F000EA36F4DEFB4
:100C980006F0B2BF5AEF06F0B25106E1B105D8B07E
:100CA80058EF06F05AEF06F06AEF06F0000EB26F42
:100CB800000EB16F000EA06F000EA16F000EA26FA4
:100CC800000EA36F000EB06F6AEF06F0B1C0B7F068
:100CD800B7A171EF06F073EF06F076EF06F0A28F7A
:100CE80079EF06F0A29F79EF06F0D890B731A36F9D
:100CF800B051A313A0C0A0F0A1C0A1F0A2C0A2F05F
:100D0800A3C0A3F088EF06F012002450800B316EC8
:100D180024502424386E23AE94EF06F096EF06F0A4
:100D280099EF06F0388099EF06F03850D8B49FEF65
:100D380006F0A1EF06F0B8EF06F03828D8A4A7EF20
:100D480006F0A9EF06F0B3EF06F0000E216E000ED4
:100D5800226E000E236E000E246EB3EF06F0238E73
:100D6800000E246EC2EF06F0000E216E000E226EF9
:100D7800000E236E000E246EC2EF06F02850800B82
:100D8800311A28502824396E27AECDEF06F0CFEF60
:100D980006F0D2EF06F03980D2EF06F03950D8B419
:100DA800D8EF06F0DAEF06F0F1EF06F03928D8A40C
:100DB800E0EF06F0E2EF06F0ECEF06F0000E256E2D
:100DC800000E266E000E276E000E286EECEF06F061
:100DD800278E000E286EFBEF06F0000E256E000E23
:100DE800266E000E276E000E286EFBEF06F02550CB
:100DF800261027102810D8A404EF07F006EF07F0F4
:100E080020EF07F0000E216E000E226E000E236EFA
:100E1800000E246E800E23127F0E241231502412ED
:100E280021C021F022C022F023C023F024C024F0E6
:100E380098EF08F098EF08F03850D8A426EF07F09C
:100E480028EF07F03CEF07F0000E216E000E226E2F
:100E5800000E236E000E246E21C021F022C022F065
:100E680023C023F024C024F098EF08F098EF08F08E
:100E78003950296E2A6A291E2A1E294A2A2A3850D8
:100E88002B6E2C6A29502B262A502C227F0E2B24BD
:100E9800326E000E2C20336E21C02DF022C02EF0B1
:100EA80023C02FF024C030F0000E216E000E226EF9
:100EB800000E236E000E246E000E346E000E356E8A
:100EC800000E366E000E376E000E396EA8EF07F072
:100ED8003950D8B472EF07F074EF07F08DEF07F0D0
:100EE800D8902D362E362F363036D89021362236E9
:100EF8002336243637AE83EF07F085EF07F086EF09
:100F080007F02180D89034363536363637368DEFAF
:100F180007F025502D5C26502E5827502F58285062
:100F28003058D8A09AEF07F09CEF07F0A7EF07F02A
:100F3800378C25502D5E26502E5A27502F5A285070
:100F4800305AA7EF07F0392A190E3964AEEF07F0C7
:100F5800B0EF07F06CEF07F0B2EF07F02D502E104E
:100F68002F103010D8B4BBEF07F0BDEF07F0D9EF62
:100F780007F03480D9EF07F0D9EF07F0D890213681
:100F880022362336243637AECCEF07F0CEEF07F003
:100F9800CFEF07F02180D8903436353636363736DD
:100FA8003206D8A03306D9EF07F023AEDEEF07F0FC
:100FB800E0EF07F0C2EF07F0E2EF07F0000E396E3E
:100FC80037AEE9EF07F0EBEF07F013EF08F0FF0E8D
:100FD8003414296EFF0E35142A6EFF0E36142B6E4C
:100FE8007F0E37142C6E29502A102B102C10D8B4D1
:100FF80000EF08F002EF08F006EF08F0010E396E76
:1010080013EF08F021A00BEF08F00DEF08F013EF35
:1010180008F0010E396E13EF08F013EF08F039509D
:10102800D8B419EF08F01BEF08F043EF08F0010EF1
:101038002126000E22222322242224A026EF08F0B3
:1010480028EF08F043EF08F021C029F022C02AF069
:1010580023C02BF024C02CF02C342C322B322A3213
:10106800293229C021F02AC022F02BC023F02CC03D
:1010780024F0324A332A43EF08F043EF08F033BE36
:101088004EEF08F0335008E13228D8A04EEF08F0B0
:1010980050EF08F05DEF08F0000E336E3268000E76
:1010A800216E000E226E000E236E000E246E5DEF80
:1010B80008F033BE6AEF08F0335006E13204D8B0C6
:1010C80068EF08F06AEF08F07AEF08F0000E336E68
:1010D800000E326E000E216E000E226E000E236E80
:1010E800000E246E000E316E7AEF08F032C038F030
:1010F80038A081EF08F083EF08F086EF08F0238E20
:1011080089EF08F0239E89EF08F0D8903830246ED4
:101118003150241221C021F022C022F023C023F034
:1011280024C024F098EF08F0120000019A6F000123
:101138009A51D8B4A2EF08F0A4EF08F0C6EF08F06F
:1011480095BFABEF08F0A9EF08F0C6EF08F092C022
:1011580096F093C097F094C098F095C099F0961FB8
:10116800971F981F991F962B000E97239823992352
:1011780096C09CF097C09DF098C09EF099C09FF0D3
:10118800D0EF08F092C09CF093C09DF094C09EF000
:1011980095C09FF0D0EF08F09251931194119511DA
:1011A800D8A4D9EF08F0DBEF08F0E7EF08F0000E5D
:1011B800926F000E936F000E946F000E956F88EF7C
:1011C80009F088EF09F0960E9B6FF3EF08F09B2B60
:1011D800D8909F339E339D339C33F3EF08F0000E75
:1011E8009C15966F000E9D15976F000E9E15986FB3
:1011F800FE0E9F15996F9651971198119911D8A4C1
:1012080008EF09F00AEF09F0EBEF08F01AEF09F020
:101218001AEF09F09B2B010E9C27000E9D239E239D
:101228009F23D8909F339E339D339C33000E9C158B
:10123800966F000E9D15976F000E9E15986FFF0E06
:101248009F15996F9651971198119911D8A42FEF5E
:1012580009F031EF09F00EEF09F03DEF09F03DEF2D
:1012680009F09B07D8909C379D379E379F373DEFF5
:1012780009F09EBF42EF09F044EF09F04EEF09F084
:10128800020E9B614AEF09F04CEF09F035EF09F0C7
:101298004EEF09F09BB153EF09F055EF09F058EF05
:1012A80009F09E9F58EF09F0D8909B339BC096F0A9
:1012B800976B986B996B96C099F0986B976B966B38
:1012C80096519C1397519D1398519E1399519F13B2
:1012D8009A51D8B472EF09F074EF09F07EEF09F073
:1012E80095BF7BEF09F079EF09F07EEF09F09F8F4A
:1012F8007EEF09F09CC092F09DC093F09EC094F0E0
:101308009FC095F088EF09F012001B6E1B50D8B4EF
:1013180090EF09F092EF09F0B4EF09F016BE99EFDB
:1013280009F097EF09F0B4EF09F013C017F014C0F3
:1013380018F015C019F016C01AF0171E181E191E3D
:101348001A1E172A000E182219221A2217C01DF079
:1013580018C01EF019C01FF01AC020F0BEEF09F027
:1013680013C01DF014C01EF015C01FF016C020F0E9
:10137800BEEF09F01350141015101610D8A4C7EFBB
:1013880009F0C9EF09F0D5EF09F0000E136E000E51
:10139800146E000E156E000E166E76EF0AF076EFDC
:1013A8000AF0960E1C6EE1EF09F01C2AD890203244
:1013B8001F321E321D32E1EF09F0000E1D14176EA8
:1013C800000E1E14186E000E1F14196EFE0E201447
:1013D8001A6E1750181019101A10D8A4F6EF09F041
:1013E800F8EF09F0D9EF09F008EF0AF008EF0AF072
:1013F8001C2A010E1D26000E1E221F222022D89014
:1014080020321F321E321D32000E1D14176E000EC0
:101418001E14186E000E1F14196EFF0E20141A6E7B
:101428001750181019101A10D8A41DEF0AF01FEF42
:101438000AF0FCEF09F02BEF0AF02BEF0AF01C067C
:10144800D8901D361E361F3620362BEF0AF01FBEE9
:1014580030EF0AF032EF0AF03CEF0AF0020E1C609F
:1014680038EF0AF03AEF0AF023EF0AF03CEF0AF0FF
:101478001CB041EF0AF043EF0AF046EF0AF01F9E56
:1014880046EF0AF0D8901C321CC017F0186A196A87
:101498001A6A17C01AF0196A186A176A17501D12C3
:1014A80018501E1219501F121A5020121B50D8B46F
:1014B80060EF0AF062EF0AF06CEF0AF016BE69EF0F
:1014C8000AF067EF0AF06CEF0AF0208E6CEF0AF072
:1014D8001DC013F01EC014F01FC015F020C016F078
:1014E80076EF0AF0120001040210D8A47EEF0AF089
:1014F80080EF0AF093EF0AF0200E0001E56F000E6E
:10150800E66F000EE76F000EE86F000EE96F000E41
:10151800EA6F000EEB6F000EEC6F2EEF0BF0020E71
:1015280001180210D8A49BEF0AF09DEF0AF0B0EF63
:101538000AF0100E0001E56F000EE66F000EE76F6F
:10154800000EE86F000EE96F000EEA6F000EEB6FF9
:10155800000EEC6F2EEF0BF0040E01180210D8A449
:10156800B8EF0AF0BAEF0AF0CDEF0AF0080E000162
:10157800E56F000EE66F000EE76F000EE86F000ED5
:10158800E96F000EEA6F000EEB6F000EEC6F2EEFA6
:101598000BF0060E01180210D8A4D5EF0AF0D7EF09
:1015A8000AF0EAEF0AF0040E0001E56F000EE66F9C
:1015B800000EE76F000EE86F000EE96F000EEA6F8D
:1015C800000EEB6F000EEC6F2EEF0BF0080E0118FB
:1015D8000210D8A4F2EF0AF0F4EF0AF007EF0BF0CC
:1015E800020E0001E56F000EE66F000EE76F000EB9
:1015F800E86F000EE96F000EEA6F000EEB6F000E49
:10160800EC6F2EEF0BF0100E01180210D8A40FEF9C
:101618000BF011EF0BF02EEF0BF0010E0001E56F50
:10162800000EE66F000EE76F000EE86F000EE96F20
:10163800000EEA6F000EEB6F000EEC6F2EEF0BF052
:101648002EEF0BF02EEF0BF02EEF0BF02EEF0BF032
:101658002EEF0BF00001D890E537E637E737E8378B
:10166800E937EA37EB37EC3700F0000ED76E000E9B
:10167800D66E3FEF0BF01200000180058111D8A44F
:1016880048EF0BF04AEF0BF05CEF0BF0200EE56F24
:10169800000EE66F000EE76F000EE86F000EE96FB0
:1016A800000EEA6F000EEB6F000EEC6FF2EF0BF01E
:1016B800020E80198111D8A464EF0BF066EF0BF0CD
:1016C80078EF0BF0100EE56F000EE66F000EE76F77
:1016D800000EE86F000EE96F000EEA6F000EEB6F68
:1016E800000EEC6FF2EF0BF0040E80198111D8A4F4
:1016F80080EF0BF082EF0BF094EF0BF0080EE56F24
:10170800000EE66F000EE76F000EE86F000EE96F3F
:10171800000EEA6F000EEB6F000EEC6FF2EF0BF0AD
:10172800060E80198111D8A49CEF0BF09EEF0BF0E8
:10173800B0EF0BF0040EE56F000EE66F000EE76FDA
:10174800000EE86F000EE96F000EEA6F000EEB6FF7
:10175800000EEC6FF2EF0BF0080E80198111D8A47F
:10176800B8EF0BF0BAEF0BF0CCEF0BF0020EE56F11
:10177800000EE66F000EE76F000EE86F000EE96FCF
:10178800000EEA6F000EEB6F000EEC6FF2EF0BF03D
:10179800100E80198111D8A4D4EF0BF0D6EF0BF0FE
:1017A800F2EF0BF0010EE56F000EE66F000EE76F2B
:1017B800000EE86F000EE96F000EEA6F000EEB6F87
:1017C800000EEC6FF2EF0BF0F2EF0BF0F2EF0BF014
:1017D800F2EF0BF0F2EF0BF0F2EF0BF0D890E537E9
:1017E800E637E737E837E937EA37EB37EC3700F021
:1017F800000ED76E000ED66E02EF0CF01200060037
:10180800F3CF69F0F4CF6AF0F6CF6BF0F7CF6CF056
:10181800F8CF6DF0F5CF6EF0F2A415EF0CF017EFDE
:101828000CF0A3EF0CF0F294754A762A75C061F0BB
:1018380076C062F0000E62BEFF0E636E646E656E67
:10184800666E676E686E0001E551611819E1E65130
:10185800621816E1E751631813E1E851641810E1C2
:10186800E95165180DE1EA5166180AE1EB5167186C
:1018780007E1EC516818D8A444EF0CF046EF0CF0DF
:10188800A3EF0CF0D8907334F66E7434F76E130E21
:10189800F6267D0EF7220900F5CFEDF00A00F5CF08
:1018A800EEF0050E7324F66E7F0E7420F76E0800B6
:1018B800F550016E026A77EC0AF0000E5E6E000EBB
:1018C8005D6EA9EC0FF0000E706E000E6F6E6FEF7C
:1018D8000CF06FEF0CF06F4A702A70BE7DEF0CF0C1
:1018E800100E6F5C270E7058D8A07DEF0CF07FEFBC
:1018F8000CF06FEF0CF081EF0CF026EC11F08C700F
:10190800000E766E000E756E734A742A7350775CFB
:101918007850800A616E7450800A6158D8B097EF89
:101928000CF099EF0CF0A3EF0CF0000E746E000EA3
:10193800736EA3EF0CF0A3EF0CF0A3EF0CF06EC0E6
:10194800F5FF6DC0F8FF6CC0F7FF6BC0F6FF6AC00B
:10195800F4FF69C0F3FF7B9211000001D435D5353F
:10196800DB6FDB51D8A4BBEF0CF0BDEF0CF0C9EF77
:101978000CF0000ED26F000ED36F000ED46F000E65
:10198800D56F5AEF0DF05AEF0DF0D2C0D6F0D3C094
:10199800D7F0D4C0D8F0D5C0D9F0200ED9EF0CF0CC
:1019A800D890D933D833D733D633E82ED4EF0CF0C8
:1019B800D651DA6FD48FFF0ED217FF0ED317FF0E52
:1019C800D417000ED517960EDB5FDBBFF0EF0CF0D7
:1019D800EEEF0CF014EF0DF0DB51800A970FD8B042
:1019E800F8EF0CF0FAEF0CF008EF0DF0000ED26FE4
:1019F800000ED36F000ED46F000ED56F5AEF0DF0A6
:101A08005AEF0DF008EF0DF0D890D533D433D33317
:101A1800D233DB3F08EF0DF03EEF0DF03EEF0DF057
:101A28001F0EDB651AEF0DF01CEF0DF032EF0DF015
:101A3800000ED26F000ED36F000ED46F000ED56F5C
:101A48005AEF0DF05AEF0DF032EF0DF0D890D23773
:101A5800D337D437D537DB0732EF0DF0DB51D8A4B5
:101A680038EF0DF03AEF0DF02AEF0DF03EEF0DF0E4
:101A78003EEF0DF0DA51D8B444EF0DF046EF0DF01B
:101A880050EF0DF0D51FD41FD31FD26D000ED323F6
:101A9800D423D52350EF0DF0D2C0D2F0D3C0D3F069
:101AA800D4C0D4F0D5C0D5F05AEF0DF0120055349B
:101AB80056345C6E5C50D8A464EF0DF066EF0DF000
:101AC80072EF0DF0000E536E000E546E000E556E40
:101AD800000E566E03EF0EF003EF0EF053C057F0F2
:101AE80054C058F055C059F056C05AF0200E82EF35
:101AF8000DF0D8905A32593258325732E82E7DEFCD
:101B08000DF057505B6E558EFF0E5316FF0E541690
:101B1800FF0E5516000E5616960E5C5E5CBE99EFCB
:101B28000DF097EF0DF0BDEF0DF05C50800A970FA8
:101B3800D8B0A1EF0DF0A3EF0DF0B1EF0DF0000E4E
:101B4800536E000E546E000E556E000E566E03EF67
:101B58000EF003EF0EF0B1EF0DF0D890563255327B
:101B6800543253325C3EB1EF0DF0E7EF0DF0E7EF82
:101B78000DF01F0E5C64C3EF0DF0C5EF0DF0DBEF49
:101B88000DF0000E536E000E546E000E556E000ED2
:101B9800566E03EF0EF003EF0EF0DBEF0DF0D8906A
:101BA80053365436553656365C06DBEF0DF05C502E
:101BB800D8A4E1EF0DF0E3EF0DF0D3EF0DF0E7EF70
:101BC8000DF0E7EF0DF05B50D8B4EDEF0DF0EFEF4F
:101BD8000DF0F9EF0DF0561E551E541E536C000EF5
:101BE800542255225622F9EF0DF053C053F054C039
:101BF80054F055C055F056C056F003EF0EF01200E1
:101C0800000E0001896F87BF0EEF0EF00CEF0EF08B
:101C18001AEF0EF0871F861F851F846D000E85231F
:101C280086238723010E896F1AEF0EF083BF21EFF9
:101C38000EF01FEF0EF02DEF0EF0831F821F811F95
:101C4800806D000E812382238323010E891B2DEFD3
:101C58000EF0000E8A6F000E8B6F000E8C6F000E58
:101C68008D6F8451851186118711D8B43EEF0EF01F
:101C780040EF0EF082EF0EF0010E886F4CEF0EF081
:101C8800D8908437853786378737882B4CEF0EF006
:101C980087AF51EF0EF053EF0EF044EF0EF057EF11
:101CA8000EF057EF0EF0D8908A378B378C378D3778
:101CB8008451805D85518159865182598751835954
:101CC800D8A069EF0EF06BEF0EF076EF0EF08451AE
:101CD800805F8551815B8651825B8751835B8A81F6
:101CE80076EF0EF0D8908733863385338433882F88
:101CF80057EF0EF082EF0EF082EF0EF08951D8B454
:101D080088EF0EF08AEF0EF094EF0EF08D1F8C1F07
:101D18008B1F8A6D000E8B238C238D2394EF0EF07E
:101D28008AC080F08BC081F08CC082F08DC083F0B7
:101D38009EEF0EF01200000E0A6E08BEA8EF0EF01D
:101D4800A6EF0EF0B4EF0EF0081E071E061E056C77
:101D5800000E062207220822010E0A6EB4EF0EF0CA
:101D680004BEBBEF0EF0B9EF0EF0C7EF0EF0041E85
:101D7800031E021E016C000E022203220422010E21
:101D88000A1AC7EF0EF0000E0B6E000E0C6E000E56
:101D98000D6E000E0E6E0550061007100810D8B410
:101DA800D8EF0EF0DAEF0EF01CEF0FF0010E096E0F
:101DB800E6EF0EF0D8900536063607360836092ABB
:101DC800E6EF0EF008AEEBEF0EF0EDEF0EF0DEEF03
:101DD8000EF0F1EF0EF0F1EF0EF0D8900B360C3656
:101DE8000D360E360550015C065002580750035850
:101DF80008500458D8A003EF0FF005EF0FF010EFCC
:101E08000FF00550015E0650025A0750035A085059
:101E1800045A0B8010EF0FF0D890083207320632C0
:101E28000532092EF1EF0EF01CEF0FF01CEF0FF04A
:101E38000A50D8B422EF0FF024EF0FF02EEF0FF076
:101E48000E1E0D1E0C1E0B6C000E0C220D220E22F7
:101E58002EEF0FF00BC001F00CC002F00DC003F024
:101E68000EC004F038EF0FF01200040E0001DD5D23
:101E7800D8B041EF0FF043EF0FF0A8EF0FF0D7EC19
:101E880010F000018EC092F08FC093F0000E93BF47
:101E9800FF0E946F956F010E99EC08F092C0BDF09B
:101EA80093C0BEF094C0BFF095C0C0F0000E000112
:101EB800A46FC00EA56F7F0EA66F440EA76FDCC07F
:101EC80092F0DDC093F0946B956B000E99EC08F0DE
:101ED80092C0A0F093C0A1F094C0A2F095C0A3F066
:101EE80078EC04F0A0C0B9F0A1C0BAF0A2C0BBF071
:101EF800A3C0BCF009EC00F0B9C0D2F0BAC0D3F06E
:101F0800BBC0D4F0BCC0D5F0B1EC0CF0D2C0DCF052
:101F1800D3C0DDF0BD9A0001DCB195EF0FF098EF6A
:101F28000FF0BD8899EF0FF0BD98DCC0DEF0DDC082
:101F3800DFF00001D890DF33DE33D890DF33DE33B3
:101F4800DE51BE6EA8EF0FF01200040E5E5CD8B032
:101F5800B0EF0FF0B2EF0FF013EF10F0FFEC10F04E
:101F68000FC013F010C014F0000E14BEFF0E156E53
:101F7800166E010E89EC09F013C03EF014C03FF054
:101F880015C040F016C041F0000E256EC00E266E3A
:101F98007F0E276E440E286E5DC013F05EC014F0ED
:101FA800156A166A000E89EC09F013C021F014C0F6
:101FB80022F015C023F016C024F089EC06F021C0E9
:101FC8003AF022C03BF023C03CF024C03DF041EC85
:101FD80002F03AC053F03BC054F03CC055F03DC04D
:101FE80056F05BEC0DF053C05DF054C05EF0BD9A46
:101FF8005DB001EF10F004EF10F0BD8805EF10F0B0
:10200800BD985DC05FF05EC060F0D89060325F320E
:10201800D89060325F325F50BE6E13EF10F012003E
:10202800000E0001806F090E816F3D0E826F000E59
:10203800836F8EC092F08FC093F090C094F091C0DF
:1020480095F0020ED8909237933794379537E82E4B
:1020580026EF10F0040ED8909237933794379537BF
:10206800E82E2FEF10F092C084F093C085F094C052
:1020780086F095C087F004EC0EF000018005CB6E69
:102088008EC0EDF08FC0EEF01200000E016E090E4A
:10209800026E3D0E036E000E046E0FC013F010C0EA
:1020A80014F011C015F012C016F0020ED8901336B5
:1020B800143615361636E82E5AEF10F0040ED8905E
:1020C8001336143615361636E82E63EF10F013C0A3
:1020D80005F014C006F015C007F016C008F09FEC14
:1020E8000EF00104CB6E0FC0EDF010C0EEF0120040
:1020F8009590000E786EF90E776E000E746E000ED5
:10210800736E000E0001816F100E806F40EC0BF0B3
:1021180044EC11F038EC11F09494000E8B6EF40E30
:1021280000018E6F010E8F6F000E906F000E916F81
:1021380014EC10F0000E0001DD6F000EDC6F39ECBE
:102148000FF04BEC11F0A7EF10F007EF00F0A20E24
:10215800F66E220EF76E000EF86E00EEE5F010EE49
:1021680008F00900F5CFEEFFE550E150FAE1B00EB6
:10217800F66E220EF76E000EF86E0900F5CF79F0B4
:102188000900F5CF7AF00001EE6BED6B766A756A9F
:10219800746A736A726A716A7B907B92000EF86E39
:1021A80000017CEF10F0000E0001806F090E816FB6
:1021B8003D0E826F000E836FEDC090F0EEC091F07F
:1021C800903B913BF00E911790510F0B9113F00E2D
:1021D800901790C084F091C085F0000E85BFFF0E67
:1021E800866F876F04EC0EF080C08EF081C08FF090
:1021F800FEEF10F01200000E016E090E026E3D0E89
:10220800036E000E046EEDC011F0EEC012F0113A2C
:10221800123AF00E121611500F0B1212F00E111680
:1022280011C005F012C006F0000E06BEFF0E076EC4
:10223800086E9FEC0EF001C00FF002C010F025EF01
:1022480011F01200EDC00FF0EEC010F0000E10BE3D
:10225800FF0E116E126E49EC10F0020E5E6E000E4B
:102268005D6EA9EC0FF01200D60ED56EF28AF294CC
:10227800D08EF28EF28C000E766E000E756E120005
:10228800D3508F0B6009D36EFC0ED316120055EC99
:1022980011F0CA80CA82CA8412000100000000003E
:0A22A8000000BD86BD84120078001E
:107D1200000B02D201B801BA02BA020B02B801D2B8
:107D220001BA02BA02BA021003BA020B020B020B28
:107D320002D201D201D201B801D201D2010B020B4F
:107D4200020B020B020B020B02D201B801BA02BAF9
:107D5200020B02B801D201100310037003A4031630
:107D620004BA02BA024B020B02BA029302BA02BA74
:107D720002BA0200000B0270037003100300004BF2
:107D820002BA024B0270034B02BA024B0200004BD2
:107D920002BA024B0270031003BA0210030000BAC7
:107DA200021003BA021003BA021003BA021003BA95
:107DB200021003BA0210037003A403160470031026
:107DC2000310037003BA024B0200004B02BA024BCB
:107DD2000270034B02BA024B0200004B02BA024B82
:107DE2000270031003BA02100310037003A403A469
:107DF2000300004B02700310037003700370031042
:107E0200037003A4037003A40370031003BA029364
:107E1200020B020B0270031003700370031604A41A
:107E22000370031003BA0210037003A40316047054
:107E3200031003BA02BA02BA02BA020B021003BA60
:107E4200020B020B0270037003700370037003BA1B
:107E520002A4037003BA02160416041604A40370E3
:107E620003BA02BA020B02BA0210031003700370C3
:107E7200031003A4030B027003100370037003705A
:107E82000310037003A4037003A40370031003BA66
:107E92000293020B020B02700310037003700316AD
:107EA20004A40370031003BA0210037003A40316A0
:107EB2000470031003BA02BA02BA02BA020B021029
:107EC20003BA020B020B027003700370037003709B
:107ED20003BA02A4037003BA02160416041604A419
:107EE200037003BA02BA020B02BA02100310037043
:107EF20003700310031003A40370030B02BA02BA47
:107F020002000010100402081010040208101008E9
:107F12001008101008101008101010020408101099
:107F220004020810100402081010081006100610AF
:107F32000610080608101010020410081008100697
:107F42000804100810081006081010101010101065
:107F5200100810081010100808080804081010046F
:107F6200100810081006080410081008100608026D
:107F7200020208101008101004081006041010085D
:107F8200100808041008101004040810080608104D
:107F92000808100208101008100808041010101029
:107FA2001008100808060804081010040810101021
:107FB200100808100410081010040810060410100D
:107FC2000810080804100810100404081008060815
:107FD20010080810020810100810080804101010E9
:107FE20010100810080806080408101004081010E1
:0D7FF2001010100808100808080801010010
:020000040020DA
:08000000FFFFFFFFFFFFFFFF00
:020000040030CA
:0E000000FF881F00FF8381FF0FC00FE00F403D
:00000001FF
